:0300000002092AC8
:0C092A00787FE4F6D8FD7581140208D433
:0E091C00FEFDFBF73F065B4F666D7D077F6FAC
:1008F600E4F511F5120512E51270020511640A45B8
:040906001170F22258
:10080000E50925E0F509E50833F508FEAF097C00A8
:100810007D0A12087F8D0BAE08AF097C007D0A129D
:10082000087F7C007D0A12087F8D0CAE08AF097C22
:10083000007D6412087F7C007D0A12087F8D0DAE5A
:1008400008AF097C037DE812087F8F0EE4F513F5ED
:1008500014AF14EF90091C93F5A0740B2FF8E675F4
:100860001100F51290092093F5901208F60514E591
:0F0870001470020513C39404E513940040D322BF
:10090A00758920758BFD758DFD7598D8E4F587D2AC
:02091A008E222B
:080936008F993099FDC299224E
:1008D40012090AD2B0C2B030B2FDD2B1AF807508ED
:1008E400008F09C2B1AE081209361208001208F6C8
:0208F40080E1A1
:10087F00BC000BBE0029EF8DF084FFADF022E4CC5D
:10088F00F875F008EF2FFFEE33FEEC33FCEE9DEC26
:10089F00984005FCEE9DFE0FD5F0E9E4CEFD22ED6C
:1008AF00F8F5F0EE8420D21CFEADF075F008EF2FB6
:1008BF00FFED33FD4007985006D5F0F222C398FDA7
:0508CF000FD5F0EA2244
:00000001FF
