:03000000020030CB
:09000B000520758CD8758AEF32CE
:10003000758150758CD8758AEF75890175A8820015
:1000400090009A75200075F00000E4936035B4FFCD
:100050000302007200FEA3E5F093FFD28C00B29081
:10006000EEFBF4F4120090EFB520F2752000A3022D
:10007000004900C28C7A0D007BFF120090DAF8A3D1
:10008000020049007A647B00120090DAF902003F16
:10009000007C0500DCFD00DBF82218301C1020403D
:1000A0001C10181020101C1018401C2020201C2090
:1000B00018202080FF20301C10182015201C202024
:1000C00020264020202B20262020203080FF2020AA
:1000D0001C101810202026202B2030202B40202000
:1000E0001C101810202026202B2030202B402030E0
:1000F0001C10182015201C202020264020202B20FA
:1001000026202020308020301C1020101C102020A1
:1001100026202B2030202B4020151F0520101C10DE
:10012000202026202B2030202B4020301C1018208F
:1001300015201C202020264020202B202620202097
:10014000303020301C1018401C2020202640136026
:090150001820154013401880002E
:00000001FF
