:2000000001300000FFFF0000FFFF0001F6FF0000FFFF002134FF0000FFFF002146FF000007
:20002000FFFF0000FFFF0000FFFF0000FFFF0000758160020036C2A71200CFD2A71200CF96
:2000400075303011911200CF75300C11911200CF75300111911200CF75300611911200CFBD
:200060007532017533007A407530801191E5339000E593F53111AFE5332402F533E5329399
:20008000F53111AFE5322402F532DAE11200D80160C0E0C2A4D2A57580FFD2A6E580C2A65A
:2000A00020E7F4C2A5853080D2A6C2A6D0E022C0E0C2A4D2A57580FFD2A6E580C2A620E73A
:2000C000F4D2A4C2A5853180D2A6C2A6D0E0227FFF7E0FDEFEDFFA227C087FFF7EFFDEFE2A
:2000E000DFFADCF622D5E3BDADB9A4D2B5D6B0D2B5BCBCCAF5C4FAA3A0A3A0A3A0A3A0A37C
:20010000A0A3A0A3A0D1A7D4BAB5E7D7D3D0ADBBE1BBB6D3ADA3A0A3A0A3A0A3A0A3A0A371
:05012000A0A3A0A3A0B4
:00000001FF
