:100800000000F88899EA8CF888CCAB9988F8000049
:1008100000000000FE4A4A4A4A4A4AFE0000000020
:100820002030AC63100040422222121A2642C0003F
:10083000222322121200202121213F2121212000E8
:10084000106001866020D048444344C830602000D6
:100850000404FE0100007F808084888780E000001F
:10086000106001F60010F81734541414F404040056
:100870000404FF0001011F11131551917F11110094
:10088000142444847C4030FC4B48F94E484808000E
:1008900010080601030C00FF22223F222222200022
:1008A00000101012141C10F09F10101010F81000FF
:1008B000000040201008060100112640201F000003
:1008C00000101010907000FF2060900804000000DD
:1008D000101008060140807F000001060C18080077
:1008E0000000000000000000000000000000000008
:1008F0000000583800000000000000000000000068
:10090000FE0232CA4620302CE324281020200000AA
:10091000FF02044320114D817F01050911300000C1
:1009200080888888FF88888800FE020202FE000016
:1009300000103C1310080A1C08FF0008100F0000EC
:100940000002827A920202FE020202FA0202000011
:10095000484641404146407F48444340414E440060
:100960000000E000000000FF0000000000E00000C8
:1009700000207F202020203F20202020207F0000FA
:1009800000020202028242FE0642C282020302000A
:10099000000804020100007F0000000107020000BF
:1009A00080808080BEAAAAAAAAAAAABE808080004F
:1009B000004020100E10203F444444444440400076
:1009C000404044444444C4C44444464664604000F7
:1009D000002070382C2723311012141870200000CA
:1009E0000000000000000000000000000000000007
:1009F00000005B3B00000000000000000000000061
:100A00000202FE929292FE02027C8404847C040024
:100A100010100F080804FF04221009060930100006
:100A200000021CC0304C300F08F8080828180800D5
:100A3000025E4320201008040301060830602000F5
:100A400004040484F42F0404E40F04C484040400A4
:100A500000020100FF0008043F42414040782000AE
:100A600000000000FE00000000FE8000000000000A
:100A700020302C232021362C23202023263C280024
:100A8000E000FF10F494FF94F408F413921AF600B7
:100A90000000FF100806FF0204804F201F20CF0037
:100AA00000FE0202F21212121212F20202FE000004
:100AB000007F40404744444444444740407F000056
:100AC00000FE02F21212F200F2121AD612F2020024
:100AD000201F003F100945402F20100F102F6000ED
:100AE0000000000000000000000000000000000006
:100AF0000000583800000000000000000000000066
:100B0000000042445C4840FF4050484664400000BA
:100B100000040404040404FF0404040404060400A0
:100B20002038A7621020A06C6BAA2A3A26A02000C9
:100B30001213120A2925121249857F020D18080086
:100B40002010FC07F220988F54A42454CC808000FD
:100B500000007F000354544A2B2515120A09000097
:100B60004042CC000404E5B6ACA4A6E504040000B1
:100B700040201F2040405F4A4A4A4A5F40404000B0
:100B8000000042445C4840FF40504846644000003A
:100B900000040404040404FF040404040406040020
:100BA0002038A7621020A06C6BAA2A3A26A0200049
:100BB0001213120A2925121249857F020D18080006
:100BC0001010929292F29E9292929292FE101000C7
:100BD0004020100CFE45444444444444FD000000C1
:100BE0000000000000000000000000000000000005
:100BF000001824241800000000000000000000007D
:100D4800120CBF750BFF750C08750D007B08E4FDD0
:100D5800FF120DB0120E62750BFF750C09750D00B0
:100D68007F01120DAC120E62750BFF750C0A750D22
:100D7800007F02120DAC120E62750BFF750C0B751D
:100D88000D007B08E4FD7F03120DB0120E62120EF7
:100D98003A7FE87E03120E66120E3A7FE87E03124F
:040DA8000E66809CB7
:100CBF00E4FD7F3F120E8EE4FD7FC0120E8EE4FD29
:100CCF007FB8120E8EE4FD7F40120E8E7D017F3FA6
:100CDF00120E8E7D017FC0120E8E7D017FB8120E17
:100CEF008E7D017F40120E8EE4F508F509E4FDFFBD
:100CFF00120E247D01E4FF120E240509E50970028E
:100D0F000508C3E508940140E4E4FD7FBC120E8E94
:100D1F007D017FBC120E8EE4F508F509E4FDFF128C
:100D2F000E247D01E4FF120E240509E5097002056A
:080D3F0008C3E508940140E43B
:010D47002289
:0A0E8400E510C454F02440FFE4FD23
:100E8E008F158D16AF16120EA5E51670047810800C
:070E9E00027820E515F222A5
:0F0EA500EF70057811E280037821E22081FD22B1
:040DAC007B08E4FDDF
:060DB0008F088D098B0A7B
:100DB600E4F50EE50EC3950A5024E50E75F020A461
:100DC600AB0B250DF9E50C35F0FAAD09AF08120CA1
:0E0DD600007F327E00120E660509050E80D5E4
:010DE40022EC
:0A0C00008F0F8D108B118A128913DB
:100C0A00E510C39404503DE50F25E024B8FFE4FD48
:100C1A00120E8E120E84E4F514120E120514E51447
:100C2A00C3941040F4E50F25E024B9FFE4FD120E49
:100C3A008E120E84751410120E120514E514C39444
:100C4A002040F422E50F25E024B8FF7D01120E8E24
:100C5A00E510C454F0FF7D01120E8EE4F514AB11B9
:100C6A00AA12A913851482758300120DE5FF7D016E
:100C7A00120E240514E514C3941040E2E50F25E092
:100C8A0024B9FF7D01120E8EE510C454F0FF7D01D8
:100C9A00120E8E751410AB11AA12A913851482753F
:100CAA008300120DE5FF7D01120E240514E514C31D
:040CBA00942040E260
:010CBE002213
:100E1200AB11AA12A913851482758300120DE5FF86
:020E2200E4FDED
:100E2400AE05AD07AF06120EA5EE70057812EDF211
:060E3400227822EDF222FB
:100E3A00E4F508E50824C0FFE4FD120E8EE5082457
:100E4A00C0FF7D01120E8E7F0A7E00120E66050813
:070E5A00E508C3944040DCF1
:010E6100226E
:040E62007F647E002B
:100E6600D3EF9400EE940040147DF47C01ED1D70E8
:0D0E7600011CED4C70F7EF1F70E61E80E3CD
:010E8300224C
:03000000020EB439
:0C0EB400787FE4F6D8FD758116020D4829
:100DE500BB010CE58229F582E5833AF583E02250C3
:100DF50006E92582F8E622BBFE06E92582F8E2220D
:0D0E0500E58229F582E5833AF583E4932226
:00000001FF
