:0C068200446174653A0054696D653A00EB
:03069A00DFFE225E
:100630007F1412069A90FEEBE03350037F01227F75
:02064000002296
:1005CA00E4FEEEC39D5017120630EF70FA12049D36
:0E05DA0090FDEBF0740129F9E43AFA0E80E48A
:0105E80022F0
:10058500120630EF70FA90FCEB7438F0120630EF7B
:1005950070FA90FCEB7406F0120630EF70FA90FCDE
:0505A500EB740CF022D4
:1005E900AE07120630EF70FAEE24FE600804700CB4
:0D05F900ED247F8003ED24BF90FCEBF02289
:10055C00AE07120630EF70FAEE24FE600E14601235
:10056C002402701490FCEB740CF02290FCEB740ED3
:09057C00F02290FCEB740FF02258
:0F065300EF7F08A2E09295D294C294C313DFF414
:010662002275
:0F0663007F08C313A29592E7D294C294DFF4FFED
:010672002265
:10060600AE05C293C294D293120653AF0612065396
:05061600D294C2932202
:10061B00C293C294D293EF4401FF120653120663A6
:04062B00D294C29310
:01062F0022A8
:0F0673003000047D108002E4FD7F8E1206062207
:1005AA00AC05AB07C200120673AF03EC75F00A8400
:1005BA00C454F0FEEC75F00A84E5F04EFD0206061E
:1002DF007F8012061BEF5470C4540F75F00AA4FEF2
:1002EF00EF540F2E1204E37F8212061BEF5470C4DB
:1002FF00540F75F00AA4FEEF540F2E900001120454
:10030F00F57F8412061BEF5470C4540F75F00AA4C6
:10031F00FEEF540F2E9000021204F57F8612061B7B
:10032F00EF5470C4540F75F00AA4FEEF540F2E90C3
:10033F0000041204F57F8A12061BEF5470C4540F89
:10034F0075F00AA4FEEF540F2E9000031204F57FF0
:10035F008812061BEF5470C4540F75F00AA4FEEFF9
:10036F00540F2E9000051204F57F8C12061BEF54CC
:10037F0070C4540F75F00AA4FEEF540F2E900006B0
:03038F000204F570
:100642007F8012061BEF30E707E4FD7F801205AAC8
:010652002285
:100392009000061204B675F00A8424309000071209
:1003A20004F59000061204B675F00A84E5F02430D4
:1003B2009000081204F5900009742D1204F59000C3
:1003C200051204B675F00A84243090000A1204F56E
:1003D2009000051204B675F00A84E5F0243090000E
:1003E2000B1204F590000C742D1204F59000041207
:1003F20004B675F00A84243090000D1204F59000C2
:10040200041204B675F00A84E5F0243090000E124E
:0904120004F590000FE40204F56A
:10041B009000021204B675F00A842430900010127A
:10042B0004F59000021204B675F00A84E5F024304E
:10043B009000111204F5900012743A1204F590001A
:10044B00011204B675F00A8424309000131204F5DF
:10045B009000011204B675F00A84E5F02430900088
:10046B00141204F5900015743A1204F512049DFF52
:10047B0075F00A8424309000161204F5EF75F00A1B
:10048B0084E5F024309000171204F590000FE4027D
:02049B0004F566
:04051700AE07A9057D
:10051B0012061BAD07EDC4540F75F00AA4FFED5482
:10052B000F2FFCE9600AECC39B5025E5492C800991
:10053B00ECC39549401AEC9549FC75F00A84C454F8
:10054B00F0FFEC75F00A84E5F04FFDAF06120606DE
:01055B00227D
:10000300E4F521F522F523F524F525F526F527F565
:1000130028F529752A02752B0A752C01120642123E
:1000230005857D017F011205E97BFF7A0679827DD3
:10003300051205CA7D017F021205E97A0679887DDA
:10004300051205CA0522E522AE217002052114D34B
:100053009410EE942740507B007A00792D1202DF32
:1000630012039212041B7F0112055C7D067F0112AD
:1000730005E97A0079347D081205CA7D067F0212EC
:1000830005E97A00793D7D081205CAE4F521F522D8
:10009300E52C60077F0112055C800C7F0212055C72
:1000A300AD2BAF2A1205E930B20302014E0524E558
:1000B30024AE237002052314D394A8EE9461500355
:1000C30002014EE4F52C0529E52914B40A00507009
:1000D3009000E175F003A4C58325F0C58373020086
:1000E300FF02010402010902010E02011302011BB6
:1000F30002012302012B02013302013B752A028014
:1001030022752A028025752A028028752A02802BEF
:10011300752A01752B0D802E752A01752B0C8026EF
:10012300752A01752B0A801E752A01752B09801605
:10013300752A01752B07800E752A01752B0680061B
:10014300E4F529752C01E4F523F52430B303020209
:100153000F0526E526AE257002052514D39420EE5F
:10016300944E500302020FE52914B40A004003021F
:10017300020A90018375F003A4C58325F0C5837338
:100183000201A10201A60201B10201BC0201C702E0
:1001930001D20201DD0201E80201F30201FE754909
:1001A30001800375490A7B3BE4FD7F8280567549D4
:1001B300017B17E4FD7F84804B75490A7B17E4FDBF
:1001C3007F8480407549017B1EE4FD7F8680357501
:1001D300490A7B1EE4FD7F86802A7549017B0BE477
:1001E300FD7F88801F75490A7B0BE4FD7F8880149F
:1001F3007549017B63E4FD7F8C800975490A7B6344
:10020300E4FD7F8C120517E4F525F52630B40302CF
:1002130002D00528E528AE277002052714D39420C1
:10022300EE944E50030202D0E52914B40A004003B1
:100233000202CB90024475F003A4C58325F0C58365
:100243007302026202026702027202027D020288E4
:1002530002029302029E0202A90202B40202BF75C5
:100263004901800375490A7B3B7DFF7F8280567578
:1002730049017B177DFF7F84804B75490A7B177D7E
:10028300FF7F8480407549017B1E7DFF7F8680351B
:1002930075490A7B1E7DFF7F86802A7549017B0B8A
:1002A3007DFF7F88801F75490A7B0B7DFF7F8880D8
:1002B300147549017B637DFF7F8C800975490A7B37
:1002C300637DFF7F8C120517E4F527F52830B5030E
:0C02D300020047752C01E4F529020047E9
:0300000002068E67
:0C068E00787FE4F6D8FD75814902000376
:10049D00BB010689828A83E0225002E722BBFE025D
:0904AD00E32289828A83E4932290
:1004B600BB010CE58229F582E5833AF583E02250FB
:1004C60006E92582F8E622BBFE06E92582F8E22245
:0D04D600E58229F582E5833AF583E493225F
:1004E300BB010689828A83F0225002F722BBFE01F8
:0204F300F322F2
:1004F500F8BB010DE58229F582E5833AF583E8F03D
:10050500225006E92582C8F622BBFE05E92582C8E8
:02051500F222D0
:00000001FF
