:2000000001400000FFFF0000FFFF0001F6FF0000FFFF002134FF0000FFFF002146FF0000F7
:20002000FFFF0000FFFF0000FFFF0000FFFF0000758160C2A71201A7D2A71201A775303047
:200040007581607800E4F6D8FDC2A71204F6D2A71204F675303051C11204F675300C51C173
:200060001204F675300151C11204F675300651C11204F6783275308051C175321075331295
:20008000515E75309051C1753230753332515E75308851C175321075331875351E75361EC3
:2000A000519075309851C175322475332675352875362A5190754200754300754414790634
:2000C000754A00755000D220853F4074649540F541758911758CFF758AEC758D3C758BB0DB
:2000E000D2B9D2A9D28AD2ABD2AFD2AAD28ED28C0000000001F0C0D0C0E0758CFF758AEC5A
:20010000E53FB40004C2A1212FB46404D2A1212F302012D54019C2A1C220853F407464952B
:2001200040F541212FD54107D2A1D220853F40D0E0D0D032C0D0C0E00542E542B400020598
:2001400043D0E0D0D032C28EC2AAC0D0C0E051FF20A20620A04230A02E75308B51C17532ED
:200160001E75331E7A02519B758D3C758BB0D5440DC2AA31A9754414754200754300D0E0ED
:20018000D0D0D2AAD28E3275308B51C17532207533107A02519B216875308B51C1753222F4
:2001A0007533107A02519B2168C3E54275F006A4FFAEF0E54375F006A42EFEE435F0FDE4B3
:2001C000F545F546F5477A18C3EF33FFEE33FEED33FDE5473547D4F547E5463546D4F5464F
:2001E000E5453545D4F545DAE0E4F533F534F535F536F537E547F5F0540FF537E5F0C45450
:200200000FF536E546F5F0540FF535E5F0C4540FF534E545540FF53375308251C175320A43
:200220007A0651B290022BE5507322412A412FC3E537954FE536954EE535954DE534954C22
:20024000E533954B400C153FE53FB4FFDD753F00412A053FE53FB465D1753F64412A7A02E2
:20026000519B75320A7533007534007535007536007537007A0651B27532107A01519B7579
:20028000320C75330E75340D75350F7A0451B22275341A75371C7A06519B22E6900512931F
:2002A000F53151DFE6240193F53151DF08DAEC783222E690051293F53151DF08DAF4783264
:2002C00022C0E0C2A4D2A57580FFD2A6E580C2A620E7F4C2A5853080D2A6C2A6D0E022C03D
:2002E000E0C2A4D2A57580FFD2A6E580C2A620E7F4D2A4C2A5853180D2A6C2A6D0E02275D3
:2003000048007590FFC290E59054F064F060251204FFE59054F0B4E00575480061DCB4D0C8
:200320000575480161DCB4B00575480261DCB470028126007590FFC291E59054F064F060C7
:20034000301204FFE59054F064F06025E59054F0B4E00575480361DCB4D00575480461DCF0
:20036000B4B00575480561DCB4700575480661DC007590FFC292E59054F064F0602D1204E4
:20038000FFE59054F064F06022E59054F0B4E00575480761DCB4D00575480861DCB4B00588
:2003A00075480961DCB470028169007590FFC293E59054F064F0604C1204FFE59054F064E6
:2003C000F06041E59054F0B4E0028194B4D00281A4B4B00281B5B4700281B900E5489005BF
:2003E0000893D904790161FC854C4B854D4C854E4D854F4EF54F900405E54973E59054F0FB
:2004000064F070F82261FC810975309251C175320A854B33854C34854D35854E36854F37FA
:200420007A0651B261FCC2A20BEBB402287B00D2A2753F0075500075309051C175323075A9
:200440003332515E75309B51C175322875332A7A02519B61FC753F0F75309B51C175322CE8
:2004600075332E7A02519B61FC054AE54AB4020D754A00754900755002790661FC754902C0
:2004800075500075309051C17532147533167A02519B61FCE53F2401B46505753F6481040E
:2004A000F53F8104C3E53F9401B4FF05753F008104F53F8104B2A061FC755000754A0075B5
:2004C000309051C17532307533327A02519BE4F533F534F535F536F537F54BF54CF54DF5C3
:2004E0004EF54F75309251C175320A7A0651B2790675500061FC7FFF7E0FDEFEDFFA227EEC
:20050000147FF8DFFEDEFA2207040108050200090603303132333435363738393A202F694D
:200520006D6ED7AACBD9C9E8B6A8CFF2A1B2A1B3A1A0D5FDB7B4D7B4CCACCDA3D6B9D4CB25
:06054000D0D0B9D8B1D5FE
:00000001FF
