:100207003F065B4F666D7D077F6F777C395E79713F
:03021700767340BB
:05001A000309FFFFFFD8
:030023000201AD2A
:1001AD00C0E0C0D075D000A298829A5007859908FA
:1001BD00C29D8016E508B401117409250CF8A699A5
:1001CD00050CE50CB40303750C00C299C298D0D090
:0301DD00D0E0323D
:1000030012018054F0C4540F90020793F5807FC807
:07001300AE071FEE70FA2298
:10011100758920758DFD758BFDD28EE4F50CC29528
:10012100C296C297D2AFD2AC7598F03096057F05D2
:100131001201E03097057F051201E0E508B4111BBB
:10014100C2ACE4F50D7409250DF8E6F5993099FD79
:10015100C299050DE50DB403ECD2AC7B007A0079B0
:06016100091200B280C586
:1000B20075A07F90000212018012000975A0BF9006
:1000C200000212000375A0DF9000011201801200ED
:1000D2000975A0EF90000112000375A0F7120167E5
:1000E20012000975A0FB12016712000675A0FD90AF
:1000F2000219E412000E75A0FEE508B41105900283
:0F010200188003900217E493F5807FC802001362
:1001E000E4FDFCEFFBC3ED9BEC9400501975890115
:1001F000758CD8758AF0D28C308DFDC28DC28C0D75
:06020000BD00010C80DDD1
:0102060022D5
:03000000020026D5
:0C002600787FE4F6D8FD75810D02006DB6
:10016700BB010689828A83E0225002E722BBFE0296
:09017700E32289828A83E49322C9
:10018000BB010CE58229F582E5833AF583E0225034
:1001900006E92582F8E622BBFE06E92582F8E2227E
:0D01A000E58229F582E5833AF583E4932298
:10003200020111E493A3F8E493A34003F68001F2D2
:1000420008DFF48029E493A3F85407240CC8C333CF
:10005200C4540F4420C8834004F456800146F6DF9E
:10006200E4800B010204081020408090001AE47E14
:10007200019360BCA3FF543F30E509541FFEE49393
:10008200A360010ECF54C025E060A840B8E493A35A
:10009200FAE493A3F8E493A3C8C582C8CAC583CA85
:1000A200F0A3C8C582C8CAC583CADFE9DEE780BE3D
:01001F0000E0
:00000001FF
