:10066B00202020202020202020202020202020207F
:0D067B0000446174653A0054696D653A00F1
:0B070F00EF1FAC0670011E4C70F622BC
:0D06F60090FEEBE03350037F01227F0022D5
:0205B7008D4C69
:1005B900E4FDEDC3954C501E1206F6EF70FA1204D5
:1005C900BE90FDEBF0740129F9E43AFA7F327E001E
:0605D90012070F0D80DC8B
:0105DF0022F9
:100609001206F6EF70FA90FCEB7438F01206F6EF6A
:1006190070FA90FCEB740CF01206F6EF70FA90FC8D
:05062900EB7406F02255
:04057D007B107D0171
:100581008D478B48AE071206F6EF70FAEE24FE6037
:1005910008047021E547148004E547243F44809016
:1005A100FCEBF07F327E0012070FAB49AA4AA94B40
:0605B100AD481205B7225F
:10064E00AE071206F6EF70FAEE24FE600804700C88
:0D065E00ED247F8003ED24BF90FCEBF02223
:1005E000AE071206F6EF70FAEE24FE600E146012EB
:1005F0002402701490FCEB740CF02290FCEB740E4F
:09060000F02290FCEB740FF022D3
:1006B200EF7F08A2E092EAD2E8C2E8C313DFF4C2F5
:0106C200EA4D
:0106C3002214
:1006C4007F08C313A2EA92E7D2E8C2E8DFF4C2EAE1
:0106D400FF26
:0106D5002202
:10068800AE05C2E9C2E8D2E91206B2AF061206B256
:05069800D2E8C2E922D6
:10069D00C2E9C2E8D2E9EF4401FF1206B21206C464
:0406AD00D2E8C2E9E4
:0106B1002226
:0F06E7003000047D108002E4FD7F8E1206882211
:10062E00AC05AB07C2001206E7AF03EC75F00A8407
:10063E00C454F0FEEC75F00A84E5F04EFD02068817
:100300007F8012069DEF5470C4540F75F00AA4FE4E
:10031000EF540F2E1205047F8212069DEF5470C415
:10032000540F75F00AA4FEEF540F2E900001120531
:10033000167F8412069DEF5470C4540F75F00AA402
:10034000FEEF540F2E9000021205167F8612069DB6
:10035000EF5470C4540F75F00AA4FEEF540F2E90A2
:1003600000041205167F8A12069DEF5470C4540FC4
:1003700075F00AA4FEEF540F2E9000031205167FAD
:100380008812069DEF5470C4540F75F00AA4FEEF56
:10039000540F2E9000051205167F8C12069DEF5407
:1003A00070C4540F75F00AA4FEEF540F2E9000068F
:0303B0000205162D
:1006D6007F8012069DEF30E707E4FD7F8012062E2D
:0106E60022F1
:1003B3009000061204D775F00A84243090000712C7
:1003C30005169000061204D775F00A84E5F0243070
:1003D300900008120516900009742D12051690005E
:1003E300051204D775F00A84243090000A1205160A
:1003F3009000051204D775F00A84E5F024309000CC
:100403000B12051690000C742D12051690000412A1
:1004130004D775F00A84243090000D12051690005D
:10042300041204D775F00A84E5F0243090000E120C
:09043300051690000FE402051605
:10043C009000021204D775F00A8424309000101238
:10044C0005169000021204D775F00A84E5F02430EA
:10045C00900011120516900012743A1205169000B5
:10046C00011204D775F00A8424309000131205167B
:10047C009000011204D775F00A84E5F02430900046
:10048C0014120516900015743A1205161204BEFFCC
:10049C0075F00A842430900016120516EF75F00AD8
:1004AC0084E5F0243090001712051690000FE4023A
:0204BC00051623
:04053800AE07A9055C
:10053C0012069DAD07EDC4540F75F00AA4FFED54DF
:10054C000F2FFCE9600AECC39B5025E5492C800970
:10055C00ECC39549401AEC9549FC75F00A84C454D7
:10056C00F0FFEC75F00A84E5F04FFDAF061206883B
:01057C00225C
:10000300E4F521F522F523F524F525F526F527F565
:1000130028F529752A02752B0A752C011206091277
:1000230006D67549FF754A06754B6B7F0112057D30
:100033007549FF754A06754B6B7F0212057D75493D
:10004300FF754A06754B7C7B057D017F0112058197
:100053007549FF754A06754B827B057D017F021248
:1000630005810522E522AE217002052114D39410E7
:10007300EE942740537B007A00792D12030012037C
:10008300B312043C7F011205E08B49754A00754B9E
:10009300347B087D067F01120581754900754A008E
:1000A300754B3D7B087D067F02120581E4F521F542
:1000B30022E52C60077F011205E0800C7F02120508
:1000C300E0AD2BAF2A12064E30B20302016F0524B6
:1000D300E524AE237002052314D394A8EE94615053
:1000E3000302016FE4F52C0529E52914B40A005035
:1000F3007090010275F003A4C58325F0C5837302D4
:10010300012002012502012A02012F02013402010A
:100113003C02014402014C02015402015C752A02B3
:100123008022752A028025752A028028752A02807A
:100133002B752A01752B0D802E752A01752B0C80CA
:1001430026752A01752B0A801E752A01752B0980D5
:1001530016752A01752B07800E752A01752B0680EB
:1001630006E4F529752C01E4F523F52430B30302E5
:1001730002300526E526AE257002052514D394200A
:10018300EE944E5003020230E52914B40A004003F2
:1001930002022B9001A475F003A4C58325F0C58347
:1001A300730201C20201C70201D20201DD0201E8AA
:1001B3000201F30201FE02020902021402021F7588
:1001C3004901800375490A7B3BE4FD7F82805675B4
:1001D30049017B17E4FD7F84804B75490A7B17E453
:1001E300FD7F8480407549017B1EE4FD7F86803559
:1001F30075490A7B1EE4FD7F86802A7549017B0BC6
:10020300E4FD7F88801F75490A7B0BE4FD7F8880AE
:10021300147549017B63E4FD7F8C800975490A7B72
:1002230063E4FD7F8C120538E4F525F52630B4032D
:100233000202F10528E528AE277002052714D3949E
:1002430020EE944E50030202F1E52914B40A004053
:10025300030202EC90026575F003A4C58325F0C583
:10026300837302028302028802029302029E020245
:10027300A90202B40202BF0202CA0202D50202E0CC
:10028300754901800375490A7B3B7DFF7F82805658
:100293007549017B177DFF7F84804B75490A7B1766
:1002A3007DFF7F8480407549017B1E7DFF7F8680B3
:1002B3003575490A7B1E7DFF7F86802A7549017B40
:1002C3000B7DFF7F88801F75490A7B0B7DFF7F882D
:1002D30080147549017B637DFF7F8C800975490A12
:1002E3007B637DFF7F8C120538E4F527F52830B555
:0D02F30003020065752C01E4F52902006589
:03000000020703F1
:0C070300787FE4F6D8FD75814C020003FD
:1004BE00BB010689828A83E0225002E722BBFE023C
:0904CE00E32289828A83E493226F
:1004D700BB010CE58229F582E5833AF583E02250DA
:1004E70006E92582F8E622BBFE06E92582F8E22224
:0D04F700E58229F582E5833AF583E493223E
:10050400BB010689828A83F0225002F722BBFE01D6
:02051400F322D0
:10051600F8BB010DE58229F582E5833AF583E8F01B
:10052600225006E92582C8F622BBFE05E92582C8C7
:02053600F222AF
:00000001FF
