:100AAC0025322E33660000000030003000000000BC
:100ABC00000000000000000000000000000000002A
:100ACC000000000000000000E00F101008200820BB
:100ADC001010E00F0000000010201020F83F002044
:100AEC0000200000000000007030082808240822B4
:100AFC0088217030000000003018082088208820E1
:100B0C004811300E000000000007C00420241024FF
:100B1C00F83F002400000000F819082188208820E4
:100B2C000811080E00000000E00F1011882088202A
:100B3C001811000E0000000038000800083FC80023
:100B4C003800080000000000701C882208210821D1
:100B5C008822701C00000000E000103108220822DE
:100B6C001011E00F00000800780088070038000E14
:060B7C00C801380008006A
:100CBE00852590E5272523FF2460F8E6F5807461ED
:090CCE002FF8E6F5A07F057E0079
:100CD700E4FDFCC3ED9FEE6480F8EC64809850154A
:100CE700E4FBFA0BBB00010AEB640A4A70F50DBD81
:050CF70000010C80DE8D
:010CFC0022D5
:100C2200E4FDFBFAF9EF70027F02BF01027F03D2FB
:100C3200B30000C2B10000D2B20000C2B20000D2C2
:100C4200B2EF1392B30000C2B20000D2B2EFC313EC
:100C52001392B30000C2B2D2B30000E4FAFBFDA2C9
:100C6200B3E4334203E4D2B20000C2B20000EB2587
:100C7200E0FBEA33FABD0707A2B3E4334203E40D13
:100C8200BD08DCE4FDE4FFA2B333FFD2B20000C230
:100C9200B20000C43333335480FF4201EDC39407E2
:100CA2005004E9C313F90DBD08DBD2B1C2B2D2B30D
:0B0CB200EB7B00FAE9FBE4AE02AF03AD
:010CBD002214
:100B82008B298A2A892BE4F559E559C39404503DEF
:100B9200E4F55AAB29AA2AA92B1204CB75F010A4AA
:100BA200255AF582E435F0F583E58224D2F582E513
:100BB200833407F583E493FFE559C454F0255A249E
:100BC20070F8A607055AE55AB410C8801DE4F55A14
:100BD200E55A900B7293FFE559C454F0255A2470DC
:100BE200F8A607055AE55AB410E67401252BF52B31
:100BF200E4352AF52A0559E5596405708CE4F5595E
:100C020074602559F8E4F60559E559B410F275599E
:100C12008074602559F8E4F60559E559B495F22235
:1009D600E4F522F523E4FF120C228F5BAC5BE412F4
:1009E60001B3E4FBFA797F784312010CE4FBFA7950
:1009F600A078401200038F5F8E5E8D5D8C5C752C37
:100A0600FF752D0A752EAC8F328E318D308C2F7B73
:100A1600007A0079451205C37B007A007945120BEE
:100A260082E4F526F527E528D39402401EE4F5284E
:100A360074022523F523E43522F522C3E5239455D4
:100A4600E52294004005E4F522F523D2B0E4F5242E
:100A5600F525120CBEE4F580F5A074022527F527CE
:100A6600E43526F5260525E52570020524C39410F0
:100A7600E524940040DCC2B0E4F524F525120CBE52
:100A8600E4F580F5A074022527F527E43526F5263A
:100A96000525E52570020524C39410E5249400403D
:060AA600DC05280209DB5B
:10000300EC4D6011E8497017ED33EC3304600DE4F7
:10001300FCFFFEFD22E933E8330470F802021C12F0
:1000230001E758046009E4CC2481500628500902F2
:100033000226284003020223C0E0EB4A7044B98041
:1000430006D0E0FB020212EF4E701CBD8008EBFFEE
:10005300EAFEE9FD80EBE98DF0A4FEE5F00200EC99
:10006300E9CDF9EAFEEBFFEF89F0A4FCE5F0CE89D8
:10007300F0A42EFFE435F0CD89F0A42DFEE435F095
:100083008067EF4E7005BD80D780C3EF8BF0A4ACC3
:10009300F0EE8BF0A42CFCE435F0F8EF8AF0A42CFE
:1000A300E5F038FCE433CB8DF0A42CFCE5F03BF811
:1000B300EE8AF0A42CFCE5F038F8E433CF89F0A401
:1000C3002CFCE5F038CF3400CE89F0A42FFFE5F007
:1000D3003EFEE433C98DF0A42EFEE5F039CD8AF05F
:1000E300A42FFFE5F03EFEE43DFD33D0E0FB5007D7
:1000F3000BBB000F020226EC2CFCEF33FFEE33FEAA
:06010300ED33FD0201FED8
:10010900020226EC5D046005E85904700302021C32
:100119001201E7580460F6EC4860F2EC7004FDFE49
:10012900FF22C860DB2481C85009C39860025006C9
:100139000202239850CAF582E9294B4A7005AB821D
:1001490002021275F0007C1A7880C3EF9BEE9AEDDB
:1001590099400DC3EF9BFFEE9AFEED99FDE842F041
:10016900DC23ACF0D0E0FFD0E0FED0E0FDAB822094
:10017900E7101BEB60BAEC2CFCEF33FFEE33FEED1E
:1001890033FD0201FEE803F830E705C0F075F00021
:10019900EF2FFFEE33FEED33FD40B830E7C280AA02
:1001A90075F020800E75F010800575F0087D007ED1
:1001B900007F003392D530D503120523EC3340106C
:1001C900EF33FFEE33FEED33FDEC33FCD5F0ED22DA
:0E01D900E5F0247EA2D513CC92E7CDCEFF2216
:10056700E540242CF8E60540227829300702782C4C
:10057700E475F0011205310204CB2000EB7F2ED287
:10058700008018EF540F2490D43440D4FF30040B6C
:10059700EF24BFB41A0050032461FFE54160021540
:1005A700410544E5447002054330070D7829E47599
:1005B700F001120531EF020511020CFD7403D20799
:1005C7008003E4C207F5408B298A2A892BE4F54189
:1005D700F543F544E54160077F201205A280F575D4
:1005E70042FFC201C200C202C203C205C206C2085C
:1005F700120570FF700D3007057F001205B3AF4479
:10060700AE4322B4255FC2D5C204120570FF24D0C1
:10061700B40A00501A75F00A784130D50508B6FFBC
:100627000106C6A426F620D5047002D20380D92479
:10063700CFB41A00EF5004C2E5D2040208A0D201D9
:1006470080C6D20080C0D20280BCD2D580BAD20583
:1006570080B47F201205A22002077401B541004033
:10066700F1120567FF1205A20205DBD208D2068048
:1006770095120567FB120567FA120567F94A4B7071
:100687000679977A097BFF20022EE541602A7E00D2
:100697008E827583001204E460060EEE654270F0E8
:1006A700C2D5EBC0E0EAC0E0E9C0E0EE120900D035
:1006B700E0F9D0E0FAD0E0FB1204CBFF60AAEBC070
:1006C700E0EAC0E0E9C0E01205A2D0E02401F9D0D9
:1006D700E03400FAD0E0FBE5420460DCD542D98083
:1006E70087D20280A21208E360F7E5427001041284
:1006F7000231A942600DE542600914F54212098AE8
:10070700EF60F3EA30E702F404C3995077EAF4257F
:10071700420430E701E404F542800D1208E360C1AA
:10072700EA05422542120231EA783FF630E701E452
:10073700254204D5420420050114120900E4C0E053
:1007470012098A783FE6601320E70714F612058A34
:10075700802204F6D0E014C0E07F0012058AE5424B
:1007670060071205811542800B300503120581D001
:10077700E00205DBD0E00480C51208E360A0E54293
:1007870004120231783FEAF6E542200502600104CF
:10079700240412090074FF04C0E012098A12058AB2
:1007A700E5422005026003120581D0E0B542E87FEB
:1007B70045120594783FE67F2B30E7047F2DF4043C
:1007C700C0E01205A2D0E075F00A84C0F012058BD4
:1007D700D0E012058B0205DB791080027908C2068A
:1007E700C2088008D2D5790A8004790AC2D5E542C1
:0507F700047002F54250
:1007FC00E4FAFDFEFF120567FC7B082001131205CD
:10080C0067FD7B1030000A120567FE120567FF7B3F
:10081C0020EC3382D592D55013C3E43000069FFFF1
:10082C00E49EFEE42001039DFDE49CFCE4CBF8C2B5
:10083C0001EC700CCFCECDCCE824F8F870F3801717
:10084C00C3EF33FFEE33FEED33FDEC33FCEB33FB48
:10085C00994002FB0FD8E9EB300105F8D0E0C44811
:10086C00B201C0E00AEC4D4E4F78207B0070C2EA1A
:10087C00B5420040BCC0E0120902D0F0D0E020012B
:10088C0004C4C0E0C4B201C0F012058BD0F0D5F0A6
:10089C00EB0205DB12054106785307DF5806494C7D
:1008AC0006454207E34F07EB4407EB49065E430757
:1008BC00F15507224607804506EC4709B750064D0F
:1008CC002D06512E06742B06552306722009A52AD7
:1008DC00060D480000066CE542B4FF037542061293
:1008EC000567FC120567FD120567FE120567FF78A8
:1008FC0038020260790AA2D5200314300509B91018
:10090C00020404B9080104A2D520060250010420F7
:10091C0002689202B541005034C0E07F20300319C8
:10092C007F30A20272067205500F120959C202C220
:10093C0006C205C2087F30800F300503E9C0E01203
:10094C0005A2300503D0E0F9D0E0B541CC30051755
:10095C007F30B9100C1205A27F583004077F7880C5
:10096C0003B908031205A23002057F2D0205A27FF0
:10097C00202008F87F2B2006F322920280CF7F00E4
:10098C00B4070050052438F8E6FF22286E756C6C0D
:10099C0029002D50434958D2011205673001F8C285
:1009AC0001784130D50108F602060D1205672403C3
:1009BC00B405004001E490099E93120593743A1219
:0A09CC000593D2037541040207DF12
:1001E700E9D2E7C933E833F892D5EDD2E7CD33EC5E
:0701F70033FC5002B2D522D7
:1001FE00EC30E7100FBF000C0EBE00080DBD000462
:10020E000BEB6014A2D5EB13FCED92E7FD2274FF0D
:10021E00FCFDFEFF22E480F8A2D574FF13FC7D8066
:03022E00E480EF7A
:10023100F920E72824F950037907E4F42402FB1894
:10024100DBFDE624FB5014E9600DE4F618E604F644
:0F025100B40A08E4F6D9F57401F60A22C2D522E0
:10026000ED33EC3392D5FA602AB4FF33EDC2E77B6D
:10027000FF60067A027985E4227A02798E20D5041D
:100280007A027989224E614E002B494E46002D4953
:100290004E4600E47A08F608DAFC7B00740722E890
:1002A000C0E0ECC0E0EDC0E0EEC0E0EFC0E0EA7519
:1002B000F010A4CAABF075F04DA42BFBE435F0FCB4
:1002C000EA2410FAEB34C5FBEC34D9FCEDC2E7FFAD
:1002D00075F056A4F42411C5F0F434C58FF0A42AA7
:1002E000E5F03BE43CF620E71412048BD0E0FFD0AD
:1002F000E0FED0E0FDD0E0FC12010C8014F404120A
:10030000048BD0E0FFD0E0FED0E0FDD0E0FC120096
:1003100003D0E0F8E6FAEDD2E7CD33EC332482FBEC
:10032000E4C3CF33CFCE33CECD33CD33DBF37B0736
:1003300075F00A846004F6081B0AE5F0F6088FF0F1
:10034000740AA4FFACF08EF0740AA42CFEACF0503A
:10035000010C8DF0740AA42CFDE435F0F608DBDE08
:03036000740722FD
:1003630002021CE86480F8E933E83360110460F0AA
:10037300ED33EC337009E8FCE9FDEAFEEBFF220400
:1003830060DED3EB9FEA9EE99DE8C2E78CF0C2F7FB
:1003930095F0400CE8CCF8E9CDF9EACEFAEBCFFBC7
:1003A3001201E785D0F05804700320D5B3E8047038
:1003B300075002B2D502022692D5EC0460F7E4CCD2
:1003C300C0E0C398F8603B94186008400DD0E0FB90
:1003D3000201FEE4FBFAC9FC8028E830E406E4C924
:1003E300FBE4CAFCE830E305E4C9CACBFCE85407E4
:1003F3006010F8C3E913F9EA13FAEB13FBEC13FCEF
:10040300D8F130F52FC3E49CFCEF9BFFEE9AFEED91
:1004130099FDD0E0FBEF4E4D4C701222DB0302023C
:1004230023EC2CFCEF33FFEE33FEED33FDED30E731
:10043300EB0201FEEF2BFFEE3AFEED39FDD0E0FBC0
:1004430050130BBB0003020226ED13FDEE13FEEF68
:0804530013FFEC13FC0201FE93
:10045B003F8000004120000042C80000447A0000A9
:10046B00461C400047C35000497424004B1896802B
:10047B004CBEBC205A0E1BCA6753C21C749DC5AE22
:10048B00FB60065407601C23231204B9EB5438603D
:10049B00091204A51204B4120003ECF8EDF9EEFAFC
:1004AB00EFCB22EB1204B480F1543803241C9004DC
:1004BB005BFE93FC0EEE93FD0EEE930ECE93FF229E
:03000000020D24CA
:0C0D2400787FE4F6D8FD7581F40209D652
:1004CB00BB010689828A83E0225002E722BBFE022F
:0904DB00E32289828A83E4932262
:1004E400BB010CE58229F582E5833AF583E02250CD
:1004F40006E92582F8E622BBFE06E92582F8E22217
:0D050400E58229F582E5833AF583E4932230
:10051100BB010689828A83F0225002F722BBFE01C9
:02052100F322C3
:0E052300C3E49FFFE49EFEE49DFDE49CFC22E9
:10053100FAE6FB0808E6F925F0F618E6CA3AF622CB
:10054100D083D082F8E4937012740193700DA3A349
:1005510093F8740193F5828883E47374029368605D
:06056100EFA3A3A380DF5D
:100CFD00EFB40A07740D120D08740A309811A899F3
:100D0D00B8130CC2983098FDA899C298B811F63056
:070D1D0099FDC299F599222E
:00000001FF
