:10000E000000FC4454545455FE5454F4444400002F
:10001E0040300F007D2525252725257D0000000079
:10002E000000E000000000FF0000000000E0000003
:10003E0000207F202020203F20202020207F000035
:10004E00024242FE4242FE0202FA0202FE0000009C
:10005E00080808078444231806013E4043407800F0
:10006E00804030EF2220203FD010121418100000D4
:10007E000000007F000000000106081020784000FC
:10008E0000000202020202FE02020202020200004E
:10009E00202020202020203F202020202020200053
:1000AE00080808FF8848009848280A2C48D80800F5
:1000BE000242817F0000404242427E424242400064
:1000CE00080888FF482800C848487F48C8480800E4
:1000DE000141807F00404020130C0C122160200053
:1000EE0010101010109050FF50901214101010009D
:1000FE00101008040201007F000001060C18080011
:10010E0000048444E4342C27242424E4040404004E
:10011E0002010000FF0909092949C97F00000000FA
:10012E00FE02324E8200FE4ACA4A4A4A7E00000051
:10013E00FF0002040300FF4020030C122160200088
:10014E0000008040300E8400000E1060C0808000E1
:10015E000001207028242331101014783001000083
:10016E0000109292929292929292120202FE0000CD
:10017E0000001F0404040404040F0020403F00008C
:10018E004020100CE3222222FE2222222202000014
:10019E000404040407040404FF0404040404040017
:1001AE000000000000FF1111111111FF00000000EE
:1001BE00004020100C0301010121413F000000000E
:1001CE00000000FE42424242424242FE0000000057
:1001DE000000003F101010101010103F0000000023
:1001EE0000FC444444FC1090101010FF101010003E
:1001FE0000070404040700000340807F0000000095
:10020E0080402098878280808384983060C0400030
:10021E0000804020100F000020403F000000000032
:10022E001212D2FE9111C0381000FF0008106000AB
:10023E00040300FF008380404020231008040300C5
:10024E0000E010080810E000000F102020100F0032
:10025E00001010F8000000000020203F20200000B9
:10026E000070080808887000003028242221300011
:10027E0000300888884830000018202020110E0019
:10028E000000C02010F8000000070424243F2400C2
:10029E0000F80888880808000019212020110E0097
:1002AE0000E0108888180000000F112020110E00A9
:1002BE0000380808C83808000000003F00000000A1
:1002CE000070880808887000001C222121221C0062
:1002DE0000E010080810E0000000312222110F008B
:1002EE00000000C0C0000000000000303000000020
:0C0B370000000000000000000000002290
:07000300E4F53CC2A0D2A20B
:01000A0022D3
:10095F00AB29AA2AA92B852C82758300120628F4AD
:03096F00F52DFF64
:0E097200120003D2A0C2A28F90D2A1C2A12275
:0E0B2900120003C2A2C2A08F90D2A1C2A122CC
:070ACD007F011208F7AF36AC
:090AD4005307074307B8020B2980
:070ADD00E53724C0253BFFB3
:090AE40053073F430740020B29B0
:060B86004307C0020B2929
:060B8C0043073E020B29A5
:1008F700EF14600B14601124027017C2A38002D298
:10090700A3120B37C2A48007C2A3120B37D2A412BB
:030917000B372279
:1009F2001208F7E4FEAF06120AD4E4FDE4FF12097E
:090A0200720DBD40F70EBE08ECB8
:010A0B0022C8
:0A03A5008F368D378B388A39893A7C
:1003AF00E537C394405045120ACDAF37120AE4E443
:1003BF00F53BE537253BFFE433FEC3EF9440EE6496
:1003CF00809480500280087F02120ACF120ADDABA0
:1003DF0038AA39A93A853B82758300120628FF1285
:1003EF000972053BE53BC3940840C7227F02120800
:1003FF00F774C02537F537AF36120AD4AF37120A64
:10040F00E4E4F53BE537253BFFE433FEC3EF9440CF
:10041F00EE6480948050028006120ACD120ADDAB82
:10042F0038AA39A93A853B82758300120628FF1234
:0B043F000972053BE53BC3940840C96F
:01044A00228F
:0307FE00FD7F0478
:040801008F318D3274
:10080500EB75F010A4244EF9740235F0FA7BFF8BDA
:1008150033F5348935AF311203A5E53104FFAB3328
:0E082500E5352408F9E43534FAAD320203A5B6
:040689008F2F8D30F2
:10068D00EB75F020A4240EF9740035F0FA7BFF8B86
:10069D0031F5328933AF2F1203A5E5302408FDABB8
:1006AD0031E5332408F9E43532FAAF2F1203A5E50D
:1006BD002F04FFAB31E5332410F9E43532FAAD30B8
:1006CD001203A5E52F04FFE5302408FDAB31E5331A
:0A06DD002418F9E43532FA0203A5EF
:1009A0007FD0AE071FEE70FA7F01120B8C7F011211
:0C09B00009F27F021209F2E4FF020B863C
:0A02FE008F278D288B298A2A892B6F
:10030800E528C3944050487F011208F7AF27120A26
:10031800D4AF28120AE4E4F52CE528252CFFE433B1
:10032800FEC3EF9440EE64809480500280147F02F4
:100338001208F7AF27120AD4E52824C0252CFF128B
:100348000AE412095F052CE52CC3940840CB227FF0
:10035800021208F774C02528F528AF27120AD4AF6F
:1003680028120AE4E4F52CE528252CFFE433FEC323
:10037800EF9440EE64809480500280147F0112084C
:10038800F7AF27120AD4E52824C0252CFF120AE467
:0C03980012095F052CE52CC3940840CB33
:0103A4002236
:040866008F228D232D
:10086A00EB75F010A4244EF9740235F0FA7BFF8B75
:10087A0024F5258926AF221202FEE52204FFAB24C5
:0E088A00E5262408F9E43525FAAD230202FE26
:100A0C00E4FEEFC313FF30A503430780D2A6C2A6B2
:040A1C000EBE08EE14
:010A200022B3
:100A7200E4FEEF1392A5D2A6C2A6EFC313FF0EBEE9
:020A820008F07A
:010A8400224F
:100A8500C2A7C2A6D2A7120A72AF05120A72D2A6CF
:030A9500C2A722D3
:100A2100C2A7C2A6D2A7EF4401FF120A72120A0C92
:040A3100D2A6C2A7E0
:010A3500229E
:0F0AED003008047D108002E4FD7F8E120A8522FE
:0F0AFC007F80120A21AD074305807F80020A85A3
:0F0B0B007F80120A21AD0753057F7F80020A8584
:060898008B2F8A3089312C
:10089E00C2A7C2A6D2A77FBF120A72E4FD120A0C2B
:1008AE00AB2FAA30A9318D82758300EF1206671225
:0A08BE000B370DBD08E7D2A6C2A754
:0108C800220D
:0608C9008B158A16891749
:1008CF00C2A7C2A6D2A77FBE120A72E4FDAB15AAB9
:1008DF0016A9178D82758300120628FF120A720D52
:0708EF00BD08EAD2A6C2A772
:0108F60022DF
:050B920000000000223C
:100A3600D283120B92D284120B92C283120B92C2F1
:040A460084020B9289
:100A4A00C283120B92D284120B92D283120B92C2DD
:040A5A0084020B9275
:050B9700C284020A4ABD
:100ABC00D284120B92A2839209C284120B92A209C5
:010ACC002207
:07093D00AC07120A367FA08F
:10094400E4FEEF339283EF25E0FF120ABC0EBE08EB
:0A095400F1D283120B92120ABCB319
:01095E002276
:100A9800E4FFFEEF25E0FF120ABC50010F0EBE086E
:010AA800F25B
:010AA900222A
:080B6F00C283120ABCD28322EA
:080B66007FDCAE071FEE70FA00
:010B6E002264
:1009800012093D5017AF04120944500EAF05120969
:10099000445007AF0312094480028000120A4A2221
:1008330012093D502AAF041209445021AF05120991
:1008430044501A120A367FA1120944500ED2831261
:100853000A98EF120655120ABC8004800280001227
:030863000A4A221C
:060737008B188A19891AD3
:10073D0012093D5037AF041209445030AF0512096C
:10074D00445029E4FDAB18AA19A91A8D82758300AE
:10075D00120628FF120944500BBD0F0B120A4A1244
:0F076D000B668003120A4A0DBD10DA22120A4AE7
:01077C00225A
:0606E7008B1B8A1C891D1B
:1006ED0012093D5041AF04120944503AAF051209A9
:1006FD00445033120A367FA11209445029D283E4A3
:10070D00FD120A98AB1BAA1CA91D8D82758300EFE3
:10071D00120667BD0F08120ABC120A4A8003120B9B
:09072D006F0DBD10DC22120A4A16
:0107360022A0
:1004CC007C10E511C4540FFB53030FEC24101207DE
:1004DC00FEE511540FFBEC24181207FEEC2420FD52
:1004EC007B0C7F04120689E50FC4540FFB530301E8
:1004FC00EC2430FD7F04120801E50F540FFBEC24B3
:10050C0038FD7F04120801EC2440FD7B0D7F0412A2
:10051C000689E50EC4540FFB530303EC2450FD7FF6
:10052C0004120801E50E540FFBEC2458FD7F041255
:0D053C000801EC2460FD7B0E7F040206899F
:10044B007C20E50DC4540FFB5303037D207F061264
:10045B000801E50D540FFBEC2408FD7F0612080183
:10046B00EC2410FD7B0F7F06120689E50CC4540F9C
:10047B00FB530307EC2420FD7F06120801E50C5407
:10048B000FFBEC2428FD7F06120801EC2430FD7BCA
:10049B00107F06120689E50BC4540FFB530307ECC0
:1004AB002440FD7F06120801E50B540FFBEC24489A
:1004BB00FD7F06120801EC2450FD7B117F0602061E
:0104CB0089A7
:1005BE00E4FBFDFF1206897B017D10E4FF12068924
:1005CE007B027D20E4FF1206897B037D30E4FF125F
:1005DE0006897B047D40E4FF1206897B057D50E48D
:1005EE00FF1206897B067D60E4FF1206897B077D7C
:1005FE0070E4FF1206897B087D207F021206897B3C
:10060E00097D307F021206897B0A7D407F02120629
:0A061E00897B0B7D507F02020689E4
:0F0B1A007B007A00790B1208981204CC02044B6E
:1009BC00AB08E4FD7F06120801AB097D087F061227
:0B09CC000801AB0A7D107F0602080145
:1009D700AB08E4FD7F06120866AB097D087F0612A7
:0B09E7000866AB0A7D107F0602086660
:070B7F00AE071FEE70FA2221
:080B7700AB13E4FDFF0209804D
:10077D007B007A007930E4FDFF120833E53075F027
:10078D006484FFE53075F06484AEF0EE75F00A8494
:10079D00F52FEE75F00A84ACF0AB077F041208015B
:1007AD00AB2F7D087F04120801AB047D107F04027E
:0207BD00080131
:010B9C002236
:1007BF003087063086032085357FD0120B7F208748
:1007CF000D2087077FE8120B7F80F6020B772086BC
:1007DF000D2086077FE8120B7F80F602077D2085AC
:0F07EF000D2085077FE8120B7F80F6120B9C22EE
:0A0B5B00E4FEEEC39F50030E80F885
:010B6500226D
:0C0B4300D2817F01120B5BC281020B5BB0
:10091A00E4F520C282120B432080FDE4FD120B4352
:10092A00E52025E0F520A28092000DBD08EFD282D5
:02093A00AF20EC
:01093C002298
:100AAA00D2AFD2A9758901D2B9758C3C758AB0D2F8
:020ABA008C228C
:100A5E00120B971209A0120AAA1205BE120B1A1235
:040A6E0007BF80FB43
:03000B00020549A2
:10054900C0E0C0F0C083C082C0D075D000C000C078
:1005590001C002C003C004C005C006C007758C3CB9
:10056900758AB00514E514B41430751400120B1A09
:1005790012091A8F13E51375F06484F508E51375EC
:10058900F06484AFF0EF75F00A84F509EF75F00AAD
:100599008485F00A1209D78513B0D007D006D00593
:1005A900D004D003D002D001D000D0D0D082D083E3
:0505B900D0F0D0E0329B
:03000000020B4FA1
:0C0B4F00787FE4F6D8FD75813C020A5E58
:10062800BB010CE58229F582E5833AF583E0225087
:1006380006E92582F8E622BBFE06E92582F8E222D1
:0D064800E58229F582E5833AF583E49322EB
:10065500BB010689828A83F0225002F722BBFE0184
:02066500F3227E
:10066700F8BB010DE58229F582E5833AF583E8F0C9
:10067700225006E92582C8F622BBFE05E92582C875
:02068700F2225D
:00000001FF
