:02000000800B73
:10000B0080617581707524FF7523FF7522FF752143
:10001B00FF752C00752B00752A0C758901758CD812
:10002B00758AF075A8827CAA90FFECD28C20B5174C
:10003B003103C297E52B2401F52BB43C03752B0040
:10004B0030B5FDD297310320B4173103C290E52AA6
:10005B002401F52AB41803752A0030B4FDD290316F
:10006B000380CAD294758CD8758AF0C0E0C0D0DCFE
:10007B0006ACAA11A211C71189D0D0D0E03290FFE3
:10008B00EFE521F090FFEEE522F090FFEDE523F098
:10009B0090FFECE524F022E52C2401F52CB43C1B5D
:1000AB00752C00E52B2401F52BB43C0F752B00E5CB
:1000BB002A2401F52AB41803752A0022C2941201CE
:1000CB00031201037920E52C75F00A84A7F009E5EA
:1000DB002B75F00A8490010C93F522E5F090010C3E
:1000EB0093F521E52A75F00A8490010C93F524E52C
:1000FB00F090011693F523227EC87DFADDFEDEFA21
:10010B0022C0F9A4B0999282F880904079243019DA
:05011B00120278001043
:00000001FF
