:03000000020100FA
:1001000075817012010B12019C80FED2B312022481
:1001100020000302010D12027874CC1201607444B5
:100120001201600012026812026812022420000309
:1001300002012A12027874CC12016074BE120160AE
:10014000120178227A08C3D2B30000C2B3000000C3
:10015000D2B37B07DBFEA2B37B17DBFE13DAE72209
:100160007A08C3C2B37B06DBFE1392B37B17DBFEB8
:10017000D2B300DAEED2B3227C0279367A08C3D247
:10018000B30000C2B3000000D2B37B07DBFEA2B312
:100190007B17DBFE13DAE7F719DCE12274F0553642
:1001A000C4F560E53630E3020560E5355407C42543
:1001B00060F5601201B7229001C0E56093F56022FE
:1001C0000001020304050607080910111213141593
:1001D00016171819202122232425262728293031F3
:1001E0003233343536373839404142434445464747
:1001F000484950515253545556575859606162639B
:1002000064656667686970717273747576777879FA
:100210008081828384858687888990919293949542
:1002200096979899D2B300C2B37880D8FED2B378AB
:1002300025D8FE30B30302023ED200020243C200C0
:10024000020247786BD8FED2B3222000012274CC80
:10025000120160744E120160740012016074001289
:100260000160747F120160227F00DF01221202739D
:0D02700002026A7E00DEFE227F20DFFE22F9
:00000001FF
