:02000000802E50
:10003000758160740078207910F608D9FC914351DD
:100040001D31F1300008318F514A317A800631C0BC
:10005000317A80FE31F13000F574CC517174445125
:100060007131F174CC517174BE5171518951AE71BD
:10007000C971FD313E117980DB20941591D2309405
:10008000FD9003477401917671292096FD91D280ED
:100090001520951691D23095FD90012E7401917620
:1000A00011AB511D513D318F317A227129209407B6
:1000B00091D23094FDB20120010280372095149135
:1000C000D20527E527B4780375270071297D0A91A9
:1000D000E580E920961491D20528E528B4630375DC
:1000E000280071297D0A91E580E92097C091D230DE
:1000F00097FD2220951391D21527E527B4FF0280A2
:100100001E71297D0A91E580A420961791D21528A9
:10011000E528B4FF02800871297D0A91E5808EB23E
:1001200001809980C52290012E740191762252455A
:1001300053455420414C45525420434F4445E527F4
:100140009524400EE524952840129001783164C230
:1001500093229001743164D29391D222900176312E
:100160006491D22274CE91A979007802E99391B674
:1001700009D8F9223E483C4C202174CB91A990012A
:010180008DF1
:1001810079007802E99391B609D8F92200439001E8
:100191009E740191769001AF740291762220202005
:1001A10044533138423230204F4B2020200020541C
:1001B100454D503A20202020202020202020009052
:1001C10001CF740191769001E0740291762220446E
:1001D100533138423230204552524F5220200020B4
:1001E10054454D503A202D2D2D2D2020202020002A
:1001F100D2B300C2B3786B7904D8FE786BD9FAD246
:10020100B3000000783230B304D8FB8004D2008000
:1002110004C2008004786BD8FED2B32220000122F0
:1002210031F174CC120271744E120271E52712027F
:1002310071E528120271747F1202712231F174CCBE
:1002410012027174481202712231F174CC120271DE
:1002510074B8517122744091A97A089002697B00A7
:10026100EB9391B60BDAF9220C12120C000000008C
:100271007A08C3C2B37B07DBFE1392B37B3CDBFE80
:10028100D2B300DAEED2B3227C0479257A08C2D740
:10029100D2B30000C2B3000000D2B37B09DBFEA2DF
:1002A100B37B3CDBFE13DAE6F709DCE022E52654FA
:1002B100806011C3E525F42401F525E526F4340019
:1002C100F526800375290AE529C4F529E525540F8A
:1002D10090031993F52AE52554F0C4F525E5265434
:0402E1000FC44525DC
:1002E500F52412030BF52554F0C44529F529E52518
:1002F500540FC4452AF52AEC600B540FC4FCE529BC
:10030500540F4CF5292275F06484FC740AC5F084F9
:10031500C445F02200000101020303040505060699
:10032500070808099003587402917674C67169E547
:1003350027752F03717C74CE7169E528752F0C71B3
:10034500A922204C4F4F4B20414C45525420434F3E
:1003550044450054483A202020202020544C3A207F
:100365002020200091A990037A79007802E99391E1
:10037500B609D8F922004375F064842430C0F085AD
:100385002FF09136D0F0740AC5F0842430052FC0C3
:10039500F0852FF09136D0F0052FE5F0852FF0246C
:1003A5003091362275F06484740AC5F0842430C017
:1003B500F0852FF09136D0F0052FE5F0852FF0244C
:1003C50030913622E52A540FF570E52AC4540FF50D
:1003D50071E529540FF572E529C4540FF573E52924
:1003E50054F0B410028010E529540F700AE529C4B1
:1003F500540F75730AF57222E573752F06B4010261
:1004050080097420852FF091368002912E052FE505
:1004150072912E052FE571912E052F742E852FF0E3
:100425009136E570052F912E222430852FF09136D7
:0704350022C0E0E5F024C045
:10043C0091A9D0E091B622C2A2914A5156227438A9
:10044C0091A991F0743891A991F0743891A991F017
:10045C00740C91A991F0740191A991F0227480917E
:10046C00A97818742091B6D8FA22B4010C74809132
:10047C00A9919B748091A9800A74C091A9919B74D5
:10048C00C091A9E493B400012291B6A380F522781F
:10049C0018742091B6D8FA227FFADFFE22F580C2BA
:1004AC00A0C2A1D2A291F0C2A222F580D2A0C2A178
:1004BC00D2A291A4C2A291A422C0E0E5F024809122
:1004CC00A9D0E091B6227E6491DFB2B7DEFA7D0A44
:1004DC0091E5227FB400DFFD227E327F64DFFEDEF9
:0D04EC00FADDF6227E197F64DFFEDEFA22C3
:00000001FF
