:10003E007777772E737475656C61622E636E00250B
:10004E00332E3266005600C0F9A4B0999282F88021
:10005E00901234567890ABCDEF1234567890ABCDDB
:10006E00EFFFFF03030303030383C3C3E3E3E3E3EE
:10007E00C3C383030303030303030383C3E3E3E362
:10008E00E3E3E3C383030303030303030383C3C352
:10009E0043030303C3C3C383030303030303030322
:1000AE008383C3C3E3E3E3C3C383030303030303F2
:1000BE0003C3E3C3030303030303030383C3C3C3E2
:1000CE00C3C3C3C38303030303030303030383C332
:1000DE00E30303030303030303030303030303FF06
:1000EE00FFFFFF00000078FEFFFFFFFFF9F1E1E1E7
:1000FE00CF8F8F0F0E080010181CFEFFFFFFFFFFA3
:10010E00FFFFFFFFFFFC1C1800C0F8FEFFFFFFFF04
:10011E000000000001FFFFFFFFFEF000C0F8FEFF31
:10012E00FFFFFFE1E1E1E1E3FFFFFFFEFCF000F086
:10013E00FFFFFFFFFFF00000181E0F8F8FCFC1E1F2
:10014E00E1F1FFFFFFFFFEF8E000C0F8FEFFFFFF4A
:10015E00FF1C1C0E1E3EFEFCFCF8F0E0000000FF33
:10016E00FFFFFF00000030F0F0F1F3F387070F9F61
:10017E00FFFFFFFF7F3E080000003FFFFFFFFFFF76
:10018E00FFFFFFFFFFDF800000033FFFFFFFFFFFCA
:10019E00E0C0C0C0E0FFFFFFFF7F1F00073FFFFF73
:1001AE00FFFFFF030303030381C1E1F97919001F68
:1001BE00FFFFFFFFFF1F00187EFFFFFFFFFF07037C
:1001CE000301F9FFFFFFFF7F0F000F7FFFFFFFFF10
:1001DE00FF0000000080FFFFFFFF7F1F000000FFF9
:1001EE00FFFFFF00000000000101838707070707DC
:1001FE0007030100808000008080000103878707CD
:10020E0007070707030100008080000001030307B2
:10021E00070707070787830301000000000000019E
:10022E000387878F8E8E8F8F8F87838100000000CC
:10023E0001070F078180000000010107070F0F0E55
:10024E00060607070703018080000000010107076B
:10025E000F0E0E0E8E8F070703010000000000FF29
:10026E00FFFFFF00001818181818FFFF18181818AD
:10027E001818001C1C6D6F6C6C6DEFEC6E6F1D1CF6
:10028E000020381F9F989898FFFF989898180000A4
:10029E0000FEFE2626FFFF262626FEFE000000603C
:1002AE00606161616161F9F96D6763616060000EA3
:1002BE000E266E5E1607FFFE06060E0E000003FBF0
:1002CE0083FFFF90188C36B333368C9818000E0EC1
:1002DE00B6F6F6B6B7B7B6F6F6B60E0E000000FFD7
:1002EE00FFFFFF00002030180C07030103060C1857
:1002FE003020000303030313333F1F0303030303E1
:10030E0000303030313131313F3F313131303030EA
:10031E0000070703031F3F33333333333C1C000006
:10032E000000000010303F1F0000000000000033EE
:10033E0033331B1B0F07030B1B1B33330300060644
:10034E0036303F1F00373037303C3F3300003034FB
:10035E00353535353F3F343435353430000000FF08
:10036E00FFFFFF000000000030C000C030C000C022
:10037E003030C000C030C000C03030C000C030C00F
:10038E0000C030000000000000609090901010201F
:10039E0000001010FE101010000000F00000000011
:1003AE0000F00000C0A0909090A0C000000001FEE0
:1003BE0000000000209090909090E00001FE201030
:1003CE00101020C0000000000000C02010101010FF
:1003DE00200000F04020101010E00000000000FF90
:1003EE00FFFFFFC0C0C0C0C0C0C3CCC3C0C3CCC31E
:1003FE00C0C0C3CCC3C0C3CCC3C0C0C3CCC3C0C3B6
:10040E00CCC3C0C0C0CCCCC0C0C6C8C8C8C9C9C681
:10041E00C0C0C0C0C7C8C8C8C8C0C0C7C8C8C8C484
:10042E00C2CFC0C0C3C4C8C8C8C4C2C0C0C0C0CF79
:10043E00C0C0C0C0C7C8C8C8C8C4CFC0C0CFC4C859
:10044E00C8C8C4C3C0C0CCCCC0C0C3C4C8C8C8C848
:10045E00C4C0C0CFC0C0C0C0C0CFC0C0C0C0C0FF2D
:10046E00FF102186609090FF909000FE9292FE0009
:10047E000004FC03001F1010905F300F40807F00BF
:10048E00000020202020FF000000FF402030181028
:10049E000010301808047F0000003F4040404078B4
:1004AE000000FC0000FF00F2121212FE121212F2F5
:1004BE00004027100E01000F000000FF0004080787
:1004CE00004494A464040F04E4242C2F24E40404B4
:1004DE00000809F8040300003F4040424643700004
:1004EE0000403010125C5450515ED45018573210E8
:1004FE000000020202020242827F02020202020295
:10050E0000FE02324A860C242425262424240C04C0
:10051E0000FF0002048341310F01017F818181F1CF
:10052E00000000F848484848FF48484848F800008E
:10053E000000000F040404043F444444444F407040
:10054E000000000202020202FE0202020202020089
:10055E0000202020202020203F202020202020208E
:10056E00000000F848484848FF48484848F800004E
:10057E000000000F040404043F444444444F407000
:10058E000000000202020202E2120A0602008000CD
:10059E0000010101010141817F0101010101010100
:1005AE000000100C044CB49405F6040404140C045E
:1005BE0000008282424223120A070A12E24202021B
:1005CE000002FA8282FE8040605846485020202069
:1005DE000008080424403F222C212E20302C2320FA
:1005EE0000101494D4BF949C1450F80F0888780807
:1005FE0000090948887E0544442020130C33C0406E
:10060E0000403010125C5450515ED45018573210C6
:10061E000000020202020242827F02020202020273
:10062E000000202022222222E22222222222202028
:10063E0000100804030040807F000001020C180027
:10064E00004494A464040F04E4242C2F24E4040432
:10065E00000809F8040300003F4040424643700082
:10066E00000000FC08080808FF08080808FC08003D
:10067E000000000702020202FF020202020700004F
:10068E000000800000F00001021C08004080000005
:10069E0000040300003F4040404040407800070205
:1006AE0000202020202020A07FA0202020202020FD
:1006BE000000804020100C03000106083060C0408E
:1006CE0000403010125C5450515ED4501857321006
:1006DE000000020202020242827F020202020202B3
:1006EE00000080601E10101010FF121010981000E5
:1006FE000001404041414141417F41414141614002
:10070E00000000F848484848FF48484848F80000AC
:10071E000000000F040404043F444444444F40705E
:10072E000000000202020202E2120A06020080002B
:10073E0000010101010141817F010101010101015E
:10074E000000100C044CB49405F6040404140C04BC
:10075E0000008282424223120A070A12E242020279
:10076E000002FA8282FE80406058464850202020C7
:10077E000008080424403F222C212E20302C232058
:10078E000000102C24A46425262424A424342C0434
:10079E0000404048494949497F4949494B484040F2
:0107AE00004A
:04000E00025C000090
:061D7500C2907F647E00B5
:101D7B00EF1FAA0670011E4A600BE4FDEDC394E64B
:051D8B0050EE0D80F791
:011D90002230
:101D3500E4FFFEC295FDC297EF25E0FFEE33FE30CE
:0F1D450096050FBF00010ED2970DBD0AE9D2958A
:011D5400226C
:101C7600EF7806C333CE33CED8F9FFC294C292E4CE
:101C8600FDEE339291D292EF25E0FFEE33FEC29243
:081C96000DBD0CEDD294C292C9
:011C9E002223
:0415DF008E408F416A
:1015E300E4FBC3E5419410E54094274003021686CB
:1015F3007C037DE8120CF17C007D0A120CF1AF052F
:10160300EF600B9000559390FFECF00B800890FF78
:10161300EC74FFF0E4FBAE40AF417C007D64120C40
:10162300F17C007D0A120CF1AF05EB4F600DEF90DA
:1016330000559390FFEDF07B01800890FFED74FF60
:10164300F0E4FBAE40AF417C007D0A120CF17C005C
:101653007D0A120CF1AF05EB4F600BEF9000559331
:1016630090FFEEF0800690FFEE74FFF0AE40AF41C6
:101673007C007D0A120CF1AF05EF9000559390FFAB
:0F168300EFF02290FFEC74BFF0A3F0A3F0A3F000
:011692002235
:101DAD00E589540F4420F589759850438780758DCA
:0B1DBD00FF758BFFD28ED2ACD2AF229C
:101AD700055DE55DAC5C7002055C14245FF58274FE
:101AE700003CF583E4936F6006E4F55CF55D22D373
:101AF700E55D940FE55C64809480401EC2AF900062
:101B070000AF82AE83E4FCFD7B507AC3F9F8D312B1
:0A1B17000D544003A380EA75E76057
:011B210022A1
:03002300021B229B
:101B2200C0E0C0F0C083C082C0D075D000C000C089
:0D1B320001C002C003C004C005C006C0070A
:0A1B3F00309807AF99121AD7C29828
:101B4900D007D006D005D004D003D002D001D000F0
:0B1B5900D0D0D082D083D0F0D0E0329A
:081E94008F993099FDC29922DB
:05000600C298AF992231
:0B1E7500EF1FAC0670011E4C70F6223F
:101E1F00E4FF90FEEBE0335008AE070FEE94324034
:011E2F00F1C1
:011E3000228F
:021CED008F4620
:101CEF00E4FDEDC39546501B121E1F120C7790FD9D
:101CFF00EBF0740129F9E43AFA7F327E00121E7577
:031D0F000D80DF65
:011D120022AE
:101D9100121E1F90FCEB7438F0121E1F90FCEB74A6
:0C1DA1000CF0121E1F90FCEB7406F022E8
:101C18008F408B42121E1FED24FE6008047021E5E0
:101C280040148004E540243F448090FCEBF07F3270
:101C38007E00121E75AB43AA44A945AF42121CEDA3
:011C48002279
:061C9F00AB05AA07AF032C
:101CA500E4FDEF600790FAEAE0FE800590F6EAE0D1
:101CB500FEAC050DECD394325006EE447FF460E2A1
:011CC50022FC
:101D1300FFE4FD121D23E540C454F02440FFE4FD1D
:101D2300121C9FEB600690F8EAEAF02290F4EAEACC
:021D3300F0229C
:101C4900AB43AA44A94575F020E546A42547F5828A
:0B1C5900E435F0F583120C90FFE4FD71
:101C6400121C9FEB600690F9EAEAF02290F5EAEA8A
:021C7400F0225C
:101BE000E4FD7F3F121D23E4FD7FC0121D23E4FDB1
:101BF0007FB8121D23E4FD7F40121D237D017F3F2E
:101C0000121D237D017FC0121D237D017FB8121D8F
:081C1000237D017F40021D232A
:101B6400E4F9E924B8FFE4FD121D23E4FD7F4012EB
:101B74001D23E924B8FF7D01121D237D017F40123E
:101B84001D23E4F540E4FDFF121C647D01E4FF1213
:0F1B94001C640540E540C3944040EA09B908C30A
:011BA300221F
:0614FD008F408D418B427F
:10150300E4F546E546C3954240030215DEE5409403
:101513000740050541E4F540E540C394045033E535
:101523004125E024B8121D13E4F547121C49054771
:10153300E547C3941040F4E54125E024B9121D1397
:10154300754710121C490547E547C3942040F40230
:1015530015D7E54125E024B8FF7D01121D23E540A1
:10156300C454F0FF7D01121D23E4F547AB43AA44A5
:10157300A94575F020E546A42547F582E435F0F545
:1015830083120C90FF7D01121C640547E547C39449
:101593001040D9E54125E024B9FF7D01121D23E563
:1015A30040C454F0FF7D01121D23754710AB43AABD
:1015B30044A94575F020E546A42547F582E435F0B6
:1015C300F583120C90FF7D01121C640547E547C3A8
:0B15D300942040D90540054602150693
:0115DE0022EA
:041A0F008F40A90556
:101A1300E540C39480400375407FE9C3944040028E
:101A2300793FC3743F99F95407FF7401A8070880ED
:101A330002C333D8FCF541E9131313541FF9E540EE
:101A4300D3943F402174C02540F5402440FF7D01DD
:101A5300121D23E924B8FF7D01121D237F01121CEF
:101A6300A590F9EA8016E540121D1EE924B8FFE4AB
:0F1A7300FD121D23E4FF121CA590F5EAE541F0DA
:011A82002241
:0617E3008F408D418B4296
:1017E900E543131313541FF543E4F547E547C39540
:1017F90043507BE54124B82547FFE4FD121D23E54D
:1018090040121D1EE4F548E54224C0FFE548C39F88
:101819005015AB44AA45A94675F080E547A425486B
:10182900121C57054880E0E54124B82547FF7D0192
:10183900121D23E5402440FF7D01121D23754840F8
:10184900E548C395425022AB44AA45A94675F080A4
:10185900E547A42548F582E435F0F583120C90FF9D
:0E1869007D01121C64054880D705470217F563
:01187700224E
:101E3100EF7F08A2E092EAD2E8C2E8C313DFF4C25E
:011E4100EAB6
:011E4200227D
:101E43007F08C313A2EA92E7D2E8C2E8DFF4C2EA4A
:011E5300FF8F
:011E5400226B
:101DE000AE05C2E9C2E8D2E9121E31AF06121E31B9
:051DF000D2E8C2E92267
:101DF500C2E9C2E8D2E9EF4401FF121E31121E43C7
:041E0500D2E8C2E974
:011E090022B6
:0F1E66003000047D108002E4FD7F8E121DE0220B
:101D5500AC05AB07C200121E66AF03EC75F00A8432
:101D6500C454F0FEEC75F00A84E5F04EFD021DE06A
:101693007F80121DF5EF5470C4540F75F00AA4FE39
:1016A300EF540F2E120CBD7F82121DF5EF5470C440
:1016B300540F75F00AA4FEEF540F2E900001120C84
:1016C300CF7F84121DF5EF5470C4540F75F00AA434
:1016D300FEEF540F2E900002120CCF7F86121DF5E1
:1016E300EF5470C4540F75F00AA4FEEF540F2E90FC
:1016F3000004120CCF7F8A121DF5EF5470C4540FEF
:1017030075F00AA4FEEF540F2E900003120CCF7F46
:1017130088121DF5EF5470C4540F75F00AA4FEEF40
:10172300540F2E900005120CCF7F8C121DF5EF5431
:1017330070C4540F75F00AA4FEEF540F2E900006E8
:03174300020CCFC6
:101E55007F80121DF5EF30E707E4FD7F80121D55E9
:011E6500225A
:10190400900006120C9075F00A842430900007129F
:101914000CCF900006120C9075F00A84E5F0243088
:10192400900008120CCF900009742D120CCF900077
:1019340005120C9075F00A84243090000A120CCF22
:10194400900005120C9075F00A84E5F024309000A4
:101954000B120CCF90000C742D120CCF90000412BB
:101964000C9075F00A84243090000D120CCF900076
:1019740004120C9075F00A84E5F0243090000E12E5
:091984000CCF90000FE4020CCF1F
:10198D00900002120C9075F00A8424309000101211
:10199D000CCF900002120C9075F00A84E5F0243003
:1019AD00900011120CCF900012743A120CCF9000CF
:1019BD0001120C9075F00A842430900013120CCF94
:1019CD00900001120C9075F00A84E5F0243090001F
:1019DD0014120CCF900015743A120CCF120C77FF25
:1019ED0075F00A842430900016120CCFEF75F00AB2
:1019FD0084E5F02430900017120CCF90000FE40214
:021A0D000CCFFC
:0C002600C2AF53E71843E70143E7802214
:091E8B0053E77FE4F5E6D2AF2233
:0B1E800012002675E64675E6B9002248
:101DC800AD07AC068CE3EDF5E453E5F843E5011205
:081DD8001E80121E8BAFE222F7
:101BA400AB07AA061200268AE3EBF5E48DE253E5BF
:101BB400F843E50275E64675E6B900E4F5E253E557
:101BC400F843E50175E64675E6B900E5E26D6006A1
:0C1BD400121E8B7F0122121E8B7F00224C
:101E0A00EE54FEFEF5E3E4F5E453E5F843E5031288
:051E1A001E80021E8B7A
:0A1746008C408D418B428A43894498
:10175000D3E5419400E540940240037F0122EE541A
:1017600001F5458F46E5462541FDE5453540FCD36D
:10177000ED9400EC940240037F01228E458F4612C7
:101780000026E4FDFCC3ED9541EC9540504FE54546
:10179000F5E3E546F5E4AB42AA43A9448D828C8388
:1017A000120C90FFF5E253E5F843E50275E6467545
:1017B000E6B900E4F5E253E5F843E50175E6467560
:1017C000E6B900E5E26F6006121E8B7F0122054636
:1017D000E546700205450DBD00010C80A8121E8B68
:0217E0007F0088
:0117E20022E4
:081A83008D408B418A4289432A
:101A8B008E448F45120026E4FDFCC3ED9540EC948B
:101A9B00005036E544F5E3E545F5E453E5F843E559
:101AAB0001E4F5E275E64675E6B900AB41AA42A939
:101ABB00438D828C83E5E2120CCF0545E545700220
:0C1ACB0005440DBD00010C80C1021E8B03
:071E9C00D2AFD2C0D2C22276
:030033000213B401
:1013B400C0E0C0D075D000C002C004C005C006C0E3
:0113C4000721
:1013C500C2AFE4FFFE20EB130FEFAC0670010E1465
:1013D500D39400EC941040ED0214ECC3EE94045049
:1013E500030214EC7E007F0030EB130FEFAC0670A8
:1013F500010E14D39400EC941040ED0214ECC3EFED
:101405009480EE940150030214ECE4FD7E007F000D
:1014150020EB130FEFAA0670010E14D39400EA9483
:101425001040ED0214EC7E007F0030EB130FEFAAA5
:101435000670010E14D39400EA941040ED0214ECEA
:101445000DBD18C87D00E52225E0F5227E007F0050
:1014550020EB130FEFAA0670010E14D39400EA9443
:101465001040ED0214EC7E007F0030EB120FEFAA66
:101475000670010E14D39400EA941040ED8068D3F1
:10148500EF9480EE940040034322010DBD08B77D23
:1014950000E52325E0F5237E007F0020EB120FEF0A
:1014A500AA0670010E14D39400EA941040ED80371B
:1014B5007E007F0030EB120FEFAA0670010E14D3E9
:1014C5009400EA941040ED801ED3EF9480EE9400D2
:1014D50040034323010DBD08B8E523F4B522088573
:0914E500225E121D75D290D2AFF7
:0F14EE00D007D006D005D004D002D0D0D0E03245
:03000300020016E2
:0100160032B7
:03000B00020017D9
:0100170032B6
:03001300020018D0
:0100180032B5
:03001B00020019C7
:0100190032B4
:03003B0002001AA6
:01001A0032B3
:10120F00121DAD121E9C121D75D2907F007E801292
:10121F001DC88F2BE52BF46012052B7E001215DFF6
:10122F007F007E80121E0AAD2B8003E4FDFF7E80BF
:10123F00121BA47B007A00792B7D017C007F0A7E34
:10124F00801217467B007A00792B7D017F00121ADE
:10125F0083121D917543FF75440075453E7B0E7DCE
:10126F00017F02121C18121BE07543407544FF7575
:10127F00450075466F7B80E4FDFF1217E37FE87E24
:10128F0003121D7B121B647543FF75440475456F74
:10129F007B06E4FD7F011214FD7543FF7544057550
:1012AF00452F7B0C7D01E4FF1214FD7543FF754440
:1012BF00067545AF7B087D03E4FF1214FD121BE09A
:1012CF00121B64E4F52AAD2AAF2A121A0F052AE57C
:1012DF002AC3944040F0752A40C37480952AFDAF0D
:1012EF002A121A0F052AE52AC3948040ECC29212E3
:1012FF001D77D292121E557B007A00795F121693DA
:10130F0012190412198D8B4375440075456F7B08B4
:10131F007D027F01121C1820B211740A2529F529AC
:10132F00E43528F528AF29FE121C76121D35AC06C0
:10133F00AD07E41208548F278E268D258C24E4FBED
:10134F00FA794878431207B28F278E268D258C2481
:10135F007543FF75440075454D8F498E488D478CF9
:10136F00467B007A00792C120DFC7543FF75440003
:10137F007545537B017D027F10121C187543007554
:10138F00440075452C7B047D027F0C121C18AF5E48
:10139F007E001215DFAF5E121E941200068F2B1205
:0513AF001D770213068A
:1007AF000208CCEC5D046005E8590470030208C22E
:1007BF0012088D580460F6EC4860F2EC7004FDFEF0
:1007CF00FF22C860DB2481C85009C398600250061D
:1007DF000208C99850CAF582E9294B4A7005AB82C5
:1007EF000208B875F0007C1A7880C3EF9BEE9AED83
:1007FF0099400DC3EF9BFFEE9AFEED99FDE842F095
:10080F00DC23ACF0D0E0FFD0E0FED0E0FDAB8220E7
:10081F00E7101BEB60BAEC2CFCEF33FFEE33FEED71
:10082F0033FD0208A4E803F830E705C0F075F000C7
:10083F00EF2FFFEE33FEED33FD40B830E7C280AA55
:10084F0075F020800E75F010800575F0087D007E24
:10085F00007F003392D530D503120D46EC33401094
:10086F00EF33FFEE33FEED33FDEC33FCD5F0ED222D
:0E087F00E5F0247EA2D513CC92E7CDCEFF2269
:100DA000E5572443F8E60557227840300702784398
:100DB000E475F001120D6A020C772000EB7F2ED251
:100DC000008018EF540F2490D43440D4FF30040B2B
:100DD000EF24BFB41A0050032461FFE558600215E8
:100DE00058055BE55B7002055A30070D7840E475E5
:100DF000F001120D6AEF020CBD021CC67403D2078B
:100E00008003E4C207F5578B408A418942E4F558D4
:100E1000F55AF55BE55860077F20120DDB80F5750C
:100E200059FFC201C200C202C203C205C206C20803
:100E3000120DA9FF700D3007057F00120DECAF5B9E
:100E4000AE5A22B4255FC2D5C204120DA9FF24D028
:100E5000B40A00501A75F00A785830D50508B6FF64
:100E60000106C6A426F620D5047002D20380D92438
:100E7000CFB41A00EF5004C2E5D2040210D9D20157
:100E800080C6D20080C0D20280BCD2D580BAD20542
:100E900080B47F20120DDB2002077401B55800409A
:100EA000F1120DA0FF120DDB020E14D208D2068043
:100EB00095120DA0FB120DA0FA120DA0F94A4B706D
:100EC0000679D07A117BFF20022EE558602A7E0039
:100ED0008E82758300120C9060060EEE655970F0DC
:100EE000C2D5EBC0E0EAC0E0E9C0E0EE121139D0B3
:100EF000E0F9D0E0FAD0E0FB120C77FF60AAEBC07B
:100F0000E0EAC0E0E9C0E0120DDBD0E02401F9D056
:100F1000E03400FAD0E0FBE5590460DCD559D98013
:100F200087D20280A212111C60F7E55970010412E9
:100F300008D7A959600DE559600914F5591211C374
:100F4000EF60F3EA30E702F404C3995077EAF4253E
:100F5000590430E701E404F559800D12111C60C1F9
:100F6000EA055925591208D7EA7856F630E701E420
:100F7000255904D5590420050114121139E4C0E0A3
:100F80001211C37856E6601320E70714F6120DC35A
:100F9000802204F6D0E014C0E07F00120DC3E559B2
:100FA0006007120DBA1559800B300503120DBAD027
:100FB000E0020E14D0E00480C512111C60A0E559B7
:100FC000041208D77856EAF6E559200502600104B4
:050FD000240412113998
:100FD50074FF04C0E01211C3120DC3E559200502C8
:100FE5006003120DBAD0E0B559E87F45120DCD78F2
:100FF50056E67F2B30E7047F2DF404C0E0120DDBAD
:10100500D0E075F00A84C0F0120DC4D0E0120DC412
:10101500020E14791080027908C206C2088008D22F
:10102500D5790A8004790AC2D5E559047002F559C3
:10103500E4FAFDFEFF120DA0FC7B08200113120D42
:10104500A0FD7B1030000A120DA0FE120DA0FF7B43
:1010550020EC3382D592D55013C3E43000069FFFB0
:10106500E49EFEE42001039DFDE49CFCE4CBF8C274
:1010750001EC700CCFCECDCCE824F8F870F38017D6
:10108500C3EF33FFEE33FEED33FDEC33FCEB33FB07
:10109500994002FB0FD8E9EB300105F8D0E0C448D0
:1010A500B201C0E00AEC4D4E4F78207B0070C2EAD9
:1010B500B5590040BCC0E012113BD0F0D0E0200192
:1010C50004C4C0E0C4B201C0F0120DC4D0F0D5F024
:1010D500EB020E14120D7A0EB1531018580E824CF5
:1010E5000E7E42101C4F1024441024490E974310C5
:1010F5002A550F5B460FB9450F254711F0500E864F
:101105002D0E8A2E0EAD2B0E8E230EAB2011D92A55
:101115000E464800000EA5E559B4FF0375590612A1
:101125000DA0FC120DA0FD120DA0FE120DA0FF7862
:101135004F020906790AA2D5200314300509B91012
:10114500020404B9080104A2D520060250010420B6
:1011550002689202B558005034C0E07F2030031970
:101165007F30A20272067205500F121192C202C29E
:1011750006C205C2087F30800F300503E9C0E012C2
:101185000DDB300503D0E0F9D0E0B558CC300517BC
:101195007F30B9100C120DDB7F583004077F788043
:1011A50003B90803120DDB3002057F2D020DDB7F2D
:1011B500202008F87F2B2006F322920280CF7F00A3
:1011C500B407005005244FF8E6FF22286E756C6CB5
:1011D5002900D201120DA03001F8C201785830D58E
:1011E5000108F6020E462D50434958120DA024035E
:1011F500B405004001E49011EB93120DCC743A1242
:0A1205000DCCD20375580402101836
:10088D00E9D2E7C933E833F892D5EDD2E7CD33ECB1
:07089D0033FC5002B2D5222A
:1008A400EC30E7100FBF000C0EBE00080DBD0004B5
:1008B4000BEB6014A2D5EB13FCED92E7FD2274FF61
:1008C400FCFDFEFF22E480F8A2D574FF13FC7D80BA
:0308D400E480EFCE
:1008D700F920E72824F950037907E4F42402FB18E8
:1008E700DBFDE624FB5014E9600DE4F618E604F698
:0F08F700B40A08E4F6D9F57401F60A22C2D52234
:10090600ED33EC3392D5FA602AB4FF33EDC2E77BC0
:10091600FF60067A09792BE4227A09793420D50416
:100926007A09792F224E614E002B494E46002D49F9
:100936004E4600E47A08F608DAFC7B00740722E8E3
:10094600C0E0ECC0E0EDC0E0EEC0E0EFC0E0EA756C
:10095600F010A4CAABF075F04DA42BFBE435F0FC07
:10096600EA2410FAEB34C5FBEC34D9FCEDC2E7FF00
:1009760075F056A4F42411C5F0F434C58FF0A42AFA
:10098600E5F03BE43CF620E714120C37D0E0FFD04C
:10099600E0FED0E0FDD0E0FC1207B28014F40412B1
:1009A6000C37D0E0FFD0E0FED0E0FDD0E0FC120B2B
:1009B60001D0E0F8E6FAEDD2E7CD33EC332482FB42
:1009C600E4C3CF33CFCE33CECD33CD33DBF37B078A
:1009D60075F00A846004F6081B0AE5F0F6088FF045
:1009E600740AA4FFACF08EF0740AA42CFEACF0508E
:1009F600010C8DF0740AA42CFDE435F0F608DBDE5C
:030A060074072250
:100A09000208C2E86480F8E933E83360110460F051
:100A1900ED33EC337009E8FCE9FDEAFEEBFF220453
:100A290060DED3EB9FEA9EE99DE8C2E78CF0C2F74E
:100A390095F0400CE8CCF8E9CDF9EACEFAEBCFFB1A
:100A490012088D85D0F05804700320D5B3E80470DE
:100A5900075002B2D50208CC92D5EC0460F7E4CC79
:100A6900C0E0C398F8603B94186008400DD0E0FBE3
:100A79000208A4E4FBFAC9FC8028E830E406E4C9CA
:100A8900FBE4CAFCE830E305E4C9CACBFCE8540737
:100A99006010F8C3E913F9EA13FAEB13FBEC13FC42
:100AA900D8F130F52FC3E49CFCEF9BFFEE9AFEEDE5
:100AB90099FDD0E0FBEF4E4D4C701222DB0302088A
:100AC900C9EC2CFCEF33FFEE33FEED33FDED30E7DF
:100AD900EB0208A4EF2BFFEE3AFEED39FDD0E0FB67
:100AE90050130BBB00030208CCED13FDEE13FEEF10
:080AF90013FFEC13FC0208A43A
:100B0100EC4D6011E8497017ED33EC3304600DE4EE
:100B1100FCFFFEFD22E933E8330470F80208C2123B
:100B2100088D58046009E4CC24815006285009023C
:100B310008CC2840030208C9C0E0EB4A7044B980E0
:100B410006D0E0FB0208B8EF4E701CBD8008EBFF39
:100B5100EAFEE9FD80EBE98DF0A4FEE5F0020BEA87
:100B6100E9CDF9EAFEEBFFEF89F0A4FCE5F0CE89CF
:100B7100F0A42EFFE435F0CD89F0A42DFEE435F08C
:100B81008067EF4E7005BD80D780C3EF8BF0A4ACBA
:100B9100F0EE8BF0A42CFCE435F0F8EF8AF0A42CF5
:100BA100E5F038FCE433CB8DF0A42CFCE5F03BF808
:100BB100EE8AF0A42CFCE5F038F8E433CF89F0A4F8
:100BC1002CFCE5F038CF3400CE89F0A42FFFE5F0FE
:100BD1003EFEE433C98DF0A42EFEE5F039CD8AF056
:100BE100A42FFFE5F03EFEE43DFD33D0E0FB5007CE
:100BF1000BBB000F0208CCEC2CFCEF33FFEE33FEF5
:060C0100ED33FD0208A422
:100C07003F8000004120000042C80000447A0000F5
:100C1700461C400047C35000497424004B18968077
:100C27004CBEBC205A0E1BCA6753C21C749DC5AE6E
:100C3700FB60065407601C2323120C65EB543860D5
:100C470009120C51120C60120B01ECF8EDF9EEFAD7
:100C5700EFCB22EB120C6080F1543803241C900C6C
:100C670007FE93FC0EEE93FD0EEE930ECE93FF223E
:030000000218786B
:0C187800787FE4F6D8FD7581770218BF78
:100C7700BB010689828A83E0225002E722BBFE027B
:090C8700E32289828A83E49322AE
:100C9000BB010CE58229F582E5833AF583E0225019
:100CA00006E92582F8E622BBFE06E92582F8E22263
:0D0CB000E58229F582E5833AF583E493227D
:100CBD00BB010689828A83F0225002F722BBFE0116
:020CCD00F32210
:100CCF00F8BB010DE58229F582E5833AF583E8F05B
:100CDF00225006E92582C8F622BBFE05E92582C807
:020CEF00F222EF
:100CF100BC000BBE0029EF8DF084FFADF022E4CCE7
:100D0100F875F008EF2FFFEE33FEEC33FCEE9DECAF
:100D1100984005FCEE9DFE0FD5F0E9E4CEFD22EDF5
:100D2100F8F5F0EE8420D21CFEADF075F008EF2F3F
:100D3100FFED33FD4007985006D5F0F222C398FD30
:050D41000FD5F0EA22CD
:0E0D4600C3E49FFFE49EFEE49DFDE49CFC22BE
:100D5400EB9FF5F0EA9E42F0E99D42F0EC6480C816
:060D640064809845F022B6
:100D6A00FAE6FB0808E6F925F0F618E6CA3AF6228A
:100D7A00D083D082F8E4937012740193700DA3A308
:100D8A0093F8740193F5828883E47374029368601C
:060D9A00EFA3A3A380DF1C
:101CC600EFB40A07740D121CD1740A309811A89942
:101CD600B8130CC2983098FDA899C298B811F6307E
:071CE60099FDC299F5992256
:1018840002120FE493A3F8E493A34003F68001F259
:1018940008DFF48029E493A3F85407240CC8C33365
:1018A400C4540F4420C8834004F456800146F6DF34
:1018B400E4800B010204081020408090000EE47EB6
:1018C400019360BCA3FF543F30E509541FFEE49329
:1018D400A360010ECF54C025E060A840B8E493A3F0
:1018E400FAE493A3F8E493A3C8C582C8CAC583CA1B
:1018F400F0A3C8C582C8CAC583CADFE9DEE780BED3
:0100120000ED
:00000001FF
