:1001830014113F065B4F666D7D077F6FBF86DBCF24
:06019300E6EDFD87FFEF21
:10015E001201A4E4F510D2AF90FFE0E510F020B547
:10016E00FD7F0A7E0012019A20B505051053100777
:05017E0020B5EB80FB41
:0501A400D288D2A82260
:0300030002009266
:0D009200C0E0C0F0C083C082C0D075D008AF
:10009F0090FFE0E0FB7A0074112510F8E6F490FF72
:1000AF00ECF07C007D64AF0B7E001201097C007DBB
:1000BF000A12010974112DF8E6F4A3F07C007D0AF1
:1000CF00AF0B7E001201097C007D0A120109741129
:1000DF002DF8E6F4A3F07E00AF0B7C007D0A120131
:0F00EF000974112DF8E6F4A3F090FFE0E510F08E
:0B00FE00D0D0D082D083D0F0D0E03210
:0A019A00EF1F70011E144E70F722D3
:03000000020006F5
:0C000600787FE4F6D8FD75812402004DDF
:10010900BC000BBE0029EF8DF084FFADF022E4CCDA
:10011900F875F008EF2FFFEE33FEEC33FCEE9DECA3
:10012900984005FCEE9DFE0FD5F0E9E4CEFD22EDE9
:10013900F8F5F0EE8420D21CFEADF075F008EF2F33
:10014900FFED33FD4007985006D5F0F222C398FD24
:050159000FD5F0EA22C1
:1000120002015EE493A3F8E493A34003F68001F2A5
:1000220008DFF48029E493A3F85407240CC8C333EF
:10003200C4540F4420C8834004F456800146F6DFBE
:10004200E4800B0102040810204080900183E47ECA
:10005200019360BCA3FF543F30E509541FFEE493B3
:10006200A360010ECF54C025E060A840B8E493A37A
:10007200FAE493A3F8E493A3C8C582C8CAC583CAA5
:10008200F0A3C8C582C8CAC583CADFE9DEE780BE5D
:010199000065
:00000001FF
