:10000300FEFEFEFEFEDEDEDEDEDEDEDEDE80DFFFA9
:10001300FFFFFFFFFFFBFBFBFBFBFBFBFB03FBFF0D
:10002300FDFD80FBF7F7EFE0FFF7F3E7EFDDFEFF02
:10003300FFFF03FF7F7F7F077F5F6F77737B7F7F89
:10004300F987F7F701E7E3D5D7B774F7F7F7F7F7CA
:10005300F777B7B7F777B7B7F18777F7F7F7F7F723
:10006300EFEFEF02EFEBE6CE2FEFEFEFEFEEA9DFCF
:10007300DFDFDF01DFDF03F7776F9F9F6FF1FBFFA9
:10008300FEFEFEFEFE00FEFDFDFDFBFBF7EFDFBF08
:10009300FFFFFFFFFF01FF7F7FBFBFDFEFE7F1FB45
:1000A300FEEFF3F780BF70FFFF80FFFFFFFFFDFE52
:1000B300F773376F01FB17BF7F017F7F7F7F7FFF61
:0B015000EF1FAC0670011E4C70F62281
:10012D00E4FFC29974082FF8E6F599A299B340FB44
:06013D00C2990FBF0CEE99
:010143002299
:1000C300E4F514F515C299C29FC29EC2B4E4F514B7
:1000D300F515E4FAFBEBC454F02403F582E4340091
:1000E300F583E5822515F582E43583F583E493FFF3
:1000F300C3740B9B2408F8A6070BBB00010AEB642F
:100103000C4A70D112012DC2B5D2B58515A07F64FA
:100113007E001201500515E51570020514C39410F5
:0A012300E5146480948040AA80A3D4
:03000000020144B6
:0C014400787FE4F6D8FD7581150200C339
:00000001FF
