:1000000075300275B0FFC2B4E5B0540F640F6044A0
:1000100012014AE5B0540F640F6039E5B0540FB4D3
:100020000E06753000020044B40D06753001020062
:1000300044B40B06753002020044B4070675300361
:1000400002004400E53090015393F580E5B0540F71
:10005000640F70F875B0FFC2B5E5B0540F640F605F
:100060004412014AE5B0540F640F6039E5B0540FF3
:10007000B40E06753004020095B40D067530050205
:100080000095B40B06753006020095B4070675306E
:100090000702009500E53090015393F580E5B054D8
:1000A0000F640F70F875B0FFC2B6E5B0540F640F5F
:1000B000604412014AE5B0540F640F6039E5B05452
:1000C0000FB40E067530080200E6B40D067530094F
:1000D0000200E6B40B0675300A0200E6B4070675A6
:1000E000300B0200E600E53090015393F580E5B057
:1000F000540F640F70F875B0FFC2B7E5B0540F64C9
:100100000F604412014AE5B0540F640F6039E5B046
:10011000540FB40E0675300C020137B40D0675305D
:100120000D020137B40B0675300E020137B4070615
:1001300075300F02013700E53090015393F580E5EB
:10014000B0540F640F70F80200037E0A7FF8DFFEE0
:10015000DEFA223F065B4F666D7D077F6F777C3945
:030160005E797154
:00000001FF
