:1006A800010D01040800000000C101C100010C0097
:1006620075A00F758911758CFC758A18D28CD2A968
:10067200758D44758B80D28ED2ABD288D2A8D2B976
:04068200D2AF80FE75
:030003000205D122
:1005D100C0E0C0F0C083C082C0D075D000C000C0F0
:1005E10001C002C003C004C005C006C007C2A820E4
:1005F100010812061F1204408002C201300102D21A
:1006010000D2A8D007D006D005D004D003D002D0A4
:0E06110001D000D0D0D082D083D0F0D0E03223
:03001B0002068654
:10068600C0E0C0D0300010E50CB40709C201C200BA
:10069600750C008002050C758D44758B80D0D0D00A
:0206A600E03240
:03000B0002056883
:10056800C0E0C0F0C083C082C0D075D000C000C059
:1005780001C002C003C004C005C006C007AF0BAE6F
:100588000AAD09AC0812001E7E00E9250DF9EE3A05
:10059800FA1202D3FFAD0D1206BFE50DC394055044
:1005A80004050D8003750D00758CFC758A18D0073D
:1005B800D006D005D004D003D002D001D000D0D0CE
:0905C800D082D083D0F0D0E032E3
:0606B8000414EFDFBF7F18
:10061F00E4FFFE74142EF8E6F5A0E5A0540FF9647C
:10062F000F6024E924F9601724FC600F24FE600793
:10063F001470107F0A80147F1480107F1E800C7F2F
:10064F002880087F3280040EBE04C875A00FEF2EDD
:02065F0004FF96
:010661002276
:1006D100C0F9A4B0999282F8809001020408102018
:10001E008F1B8E1A8D198C187F3F7E427D0F7C00B0
:10002E00AB1BAA1AA919A818D3120409400C751BE8
:10003E003F751A4275190F751800E4FFFEFDFCABF3
:10004E001BAA1AA919A818C31204095009E4F51B12
:10005E00F51AF519F5187BA07A8679017800AF1B91
:10006E00AE1AAD19AC181203778F0EE4FCFDFE7BB1
:10007E00A07A867901F81202ECC3E51B9FFFE51A00
:10008E009EFEE5199DFDE5189CFCE47B107A27F990
:10009E00F81203778F0FAF0EE4FCFDFE7BA07A867D
:1000AE007901F81202ECC3E51B9FFFE51A9EFEE5EF
:1000BE00199DFDE5189CFCC004C005C006C007AF25
:1000CE000FE4FCFDFE7B107A27F9F81202ECAB0769
:1000DE00AA06A905A804D007D006D005D004C3EF00
:1000EE009BFFEE9AFEED99FDEC98FCE47BE87A031B
:1000FE00F9F81203778F10AF0EE4FCFDFE7BA07AA9
:10010E00867901F81202ECC3E51B9FFFE51A9EFEED
:10011E00E5199DFDE5189CFCC004C005C006C0078E
:10012E00AF0FE4FCFDFE7B107A27F9F81202ECAB60
:10013E0007AA06A905A804D007D006D005D004C387
:10014E00EF9BFFEE9AFEED99FDEC98FCC004C00506
:10015E00C006C007AF10E4FCFDFE7BE87A03F9F899
:10016E001202ECAB07AA06A905A804D007D006D048
:10017E0005D004C3EF9BFFEE9AFEED99FDEC98FCC3
:10018E00E47B64FAF9F81203778F11AF0EE4FCFDED
:10019E00FE7BA07A867901F81202ECC3E51B9FFF65
:1001AE00E51A9EFEE5199DFDE5189CFCC004C005F0
:1001BE00C006C007AF0FE4FCFDFE7B107A27F9F8EE
:1001CE001202ECAB07AA06A905A804D007D006D0E8
:1001DE0005D004C3EF9BFFEE9AFEED99FDEC98FC63
:1001EE00C004C005C006C007AF10E4FCFDFE7BE8EE
:1001FE007A03F9F81202ECAB07AA06A905A804D0F7
:10020E0007D006D005D004C3EF9BFFEE9AFEED9902
:10021E00FDEC98FCC004C005C006C007AF11E4FC9D
:10022E00FDFE7B64FAF9F81202ECAB07AA06A905EB
:10023E00A804D007D006D005D004C3EF9BFFEE9ADA
:10024E00FEED99FDEC98FCE47B0AFAF9F8120377BF
:10025E008F12AF0EE4FCFDFE7BA07A867901F812B8
:10026E0002ECC3E51B9FFBC003AF0FE4FCFDFE7B5E
:10027E00107A27F9F81202ECC3D0E09FFBC003AF4F
:10028E0010E4FCFDFE7BE87A03F9F81202ECC3D011
:10029E00E09FFBC003AF11E4FCFDFE7B64FAF9F8AE
:1002AE001202ECC3D0E09FFBC003AF12E4FCFDFED4
:1002BE007B0AFAF9F81202ECC3D0E09FF5137B002B
:0502CE007A00790E2208
:1006BF00E4F580EF9006D193F590ED9006DB93F57E
:0206CF00802287
:10044000EF12041A04780B047E0C04840D048A0E47
:10045000049015049616049C1704A21804A81F04FF
:10046000AE2004B42104BA2204C02904C62A04CB55
:100470002B04D12C000004DBE4750B078057E475D6
:100480000B088051E4750B09804BE4750B0E804519
:10049000E4750B04803FE4750B058039E4750B06A9
:1004A0008033E4750B18802DE4750B018027E4750B
:1004B0000B028021E4750B03801BE4750B22801571
:1004C000E4750B29800FE4F50B800AE4750B2B8093
:0C04D00004E4750B2CF50AF509F5082270
:030000000204DC1B
:0C04DC00787FE4F6D8FD7581200205232E
:1002D300BB010689828A83E0225002E722BBFE0229
:0902E300E32289828A83E493225C
:1002EC00E88FF0A4CC8BF0A42CFCE98EF0A42CFCB1
:1002FC008AF0EDA42CFCEA8EF0A4CDA8F08BF0A42F
:10030C002DCC3825F0FDE98FF0A42CCD35F0FCEB8D
:10031C008EF0A4FEA9F0EB8FF0A4CFC5F02ECD3952
:0F032C00FEE43CFCEAA42DCE35F0FDE43CFC22BF
:10033B0075F008758200EF2FFFEE33FECD33CDCC79
:10034B0033CCC58233C5829BED9AEC99E5829840FC
:10035B000CF582EE9BFEED9AFDEC99FC0FD5F0D6D9
:10036B00E4CEFBE4CDFAE4CCF9A88222B800C1B903
:10037B000059BA002DEC8BF084CFCECDFCE5F0CB41
:10038B00F97818EF2FFFEE33FEED33FDEC33FCEB7A
:10039B0033FB10D703994004EB99FB0FD8E5E4F935
:1003AB00FA227818EF2FFFEE33FEED33FDEC33FC22
:1003BB00C933C910D7059BE99A4007EC9BFCE99A16
:1003CB00F90FD8E0E4C9FAE4CCFB2275F010EF2F5B
:1003DB00FFEE33FEED33FDCC33CCC833C810D7075B
:1003EB009BEC9AE899400AED9BFDEC9AFCE899F896
:0E03FB000FD5F0DAE4CDFBE4CCFAE4C8F92229
:10040900EB9FF5F0EA9E42F0E99D42F0E89C45F049
:0104190022C0
:10041A00D083D082F8E4937012740193700DA3A371
:10042A0093F8740193F5828883E473740293686085
:06043A00EFA3A3A380DF85
:1004E800020662E493A3F8E493A34003F68001F2C2
:1004F80008DFF48029E493A3F85407240CC8C33315
:10050800C4540F4420C8834004F456800146F6DFE3
:10051800E4800B01020408102040809006A8E47EC5
:10052800019360BCA3FF543F30E509541FFEE493D8
:10053800A360010ECF54C025E060A840B8E493A39F
:10054800FAE493A3F8E493A3C8C582C8CAC583CACA
:10055800F0A3C8C582C8CAC583CADFE9DEE780BE82
:0106BE00003B
:00000001FF
