:10009A00203D087F8C9AA6B3BFCAD4DEE6EDF3F8FA
:1000AA00FCFEFEFEFCF8F3EDE6DED4CABFB3A69A68
:1000BA008C7F7264584B3F342A2018110B060200B9
:1000CA00000002060B1118202A343F4B5864727F35
:0300DA00014500DD
:10010200758902758C9CD28CD2A9D2AFC2A080FE16
:03000B000200DE12
:1000DE00C0E0C0D075D000C00074082545F8E6F524
:1000EE0080E545B43D0575450080020545D000D03C
:0400FE00D0D0E0324C
:0300000002000EED
:0C000E00787FE4F6D8FD758145020055AE
:10001A00020102E493A3F8E493A34003F68001F2F9
:10002A0008DFF48029E493A3F85407240CC8C333E7
:10003A00C4540F4420C8834004F456800146F6DFB6
:10004A00E4800B010204081020408090009AE47EAC
:10005A00019360BCA3FF543F30E509541FFEE493AB
:10006A00A360010ECF54C025E060A840B8E493A372
:10007A00FAE493A3F8E493A3C8C582C8CAC583CA9D
:10008A00F0A3C8C582C8CAC583CADFE9DEE780BE55
:0100DD000022
:00000001FF
