:02000000D9C065
:02001600EEC03A
:02001A007DC1A6
:14002600415400415441004154480041544530004154563059
:14003A00004154583000415426460041542B434C49503D313E
:14004E000041542B4353510041545E5353594E433D310041C5
:14006200545E534D534F0041545E534E46533D340041545E05
:14007600534E46493D342C33323736370041542B434E4D49B9
:14008A003D312C312C302C302C310041545E534E464F3D33E9
:14009E002C31363338342C31363338342C31363338342C315B
:1400B200363338342C31363338342C342C300041542B434D27
:1400C60047463D300041542B434D47533D0041542B434D476E
:1400DA00523D310041542B434D474C3D300041542B434D476B
:1400EE00443D0041545E534E4650543D300041542B434C4300
:140102004B3D225343222C312C0041542B4350494E3F004194
:14011600542B434C434B3D225343222C320041542B4350571A
:14012A00443D225343222C0041542B434C434B3D2253432246
:14013E002C302C0041542B4350494E3D0041545E53424C4BDF
:140152000041545E434346433D002B434D54493A2022534DE6
:14016600222C203100415444003133373133353236343732D4
:14017A000000000100000000000000000041542B434D474693
:14018E003D310041542B434E4D493D322C3100415445300032
:1401A200415456300041540041542B434D47523D3100CFE58E
:1401B600D4E0CDBFDEBFC051D0400AEA08830024E5EAF0E0F5
:1401CA0011E0E73DF10711F00192FBCF0083EFE6F1E0A0E607
:1401DE00B0E011E0E43BF10721F0C89531960D92F9CFDED328
:1401F200FFCF2A923A920A938A939A93EA93FA932FB62A9211
:140206008CB18A3009F47AC00091C6000091C60001508091A6
:14021A00C700803399F48091C8008D3079F42090C60020929E
:14022E006C0022242092C60081E080936D0080936F0020927D
:1402420076005EC08091C700823379F48091C8008D3059F437
:1402560081E08093700022242092C60080936D0080936F00F0
:14026A004BC08091C700833379F48091C8008D3059F481E036
:14027E008093720022242092C60080936D0080936F0038C02F
:140292008091C700873379F48091C8008D3059F481E0809302
:1402A600710022242092C60080936D0080936F0025C080911D
:1402BA00C700843379F48091C8008D3059F422242092C600A4
:1402CE0081E080936D0080936F008093760012C02090C600E8
:1402E2003324822D8F5F8093C60087EC90E0E22DFF27E80F2C
:1402F600F91F2CB02082222420926D0029902FBEF991E9914F
:14030A009991899109913990299018952A928A939A93EA934F
:14031E00FA932FB62A9220906E00222049F486EA90E0E091AF
:14033200A500FF27E80FF91F20802CB886EA90E0E091A50063
:14034600FF27E80FF91F80818D3051F086EA90E0E091A50079
:14035A00FF27E80FF91F80818A3141F481E080936E00222441
:14036E002092A500569805C08091A5008F5F8093A50029905C
:140382002FBEF991E99199918991299018950091C6002091C4
:14039600C600215087EC90E0E22FFF27E80FF91F808180333F
:1403AA0071F487EC90E0E02FFF27E80FF91F80818D3029F4D8
:1403BE0022242092C60001E001C000270895002709C087ECA4
:1403D20090E0E02FFF27E80FF91F2224208203950038A8F310
:1403E60008952090A6002CB8569A089557D3622F5801442720
:1403FA000DC0E42FFF27EA0DFB1DE49186EA90E0A42FBB27D0
:14040E00A80FB91FEC934395461788F386EA90E0E62FFF2701
:14042200E80FF91F8DE0808387EA90E0E62FFF27E80FF91F1C
:140436002224208220926F0020926E0081E08093A500CFDFC2
:14044A0020906E002220E1F304E110E0B1D220906F002220B1
:14045E00E1F3222420926F0013D308951BD3622F5801442789
:140472000DC0E42FFF27EA0DFB1D208086EA90E0E42FFF27A8
:14048600E80FF91F20824395461788F386EA90E0E62FFF27E6
:14049A00E80FF91F8DE0808387EA90E0E62FFF27E80FF91FA4
:1404AE002224208220926F0020926E0081E08093A50093DF86
:1404C20020906E002220E1F304E110E075D220906F00222075
:1404D600E1F3222420926F00D7D20895DDD2A22E68016885BC
:1404EA0044270DC0E42FFF27EC0DFD1D208086EA90E0E42FE7
:1404FE00FF27E80FF91F208243954A1588F386EA90E0EA2D6A
:14051200FF27E80FF91F8DE0808387EA90E0EA2DFF27E80F1B
:14052600F91F2224208220926E0081E08093A50020926F0067
:14053A0056DF20906E002220E1F304E110E038D2662341F0AB
:14054E0020906F002220E1F3222420926F0006C008EC10E053
:140562002BD2222420926F0093D2089599D26627442701C0FB
:140576004395262E33246F5F80E690E0E22DFF27E80FF91F06
:14058A002080222099F781E48093A60084E58093A70084E442
:14059E008093A80083E0A82E662714C02A2C3324822D8F5FAA
:1405B200A82E80E690E0E62FFF27E80FF91F408086EA90E09F
:1405C600E22DFF27E80FF91F40826395641750F389EA90E082
:1405DA00E42FFF27E80FF91F8BE380838AEA90E0E42FFF2737
:1405EE00E80FF91F8DE08083222420926F0020926E0081E092
:140602008093A500F0DE20906E002220E1F304E110E0D2D1B2
:14061600222420926F0038D2089544D24A810CC019012F5F6D
:14062A003F4FF101E491D8012D908D012E1611F0002706C071
:14063E00242E33244150222079F701E032D208952BD2602FAE
:1406520044270FC088EE90E0E42FFF27E80FF91FE49187EC44
:1406660091E0A42FBB27A80FB91FEC934395483078F36F3FE3
:14067A00F1F441E009C0842F805D8093CF0129E007EC11E03D
:14068E00EDDE43954A30A8F381E38093CF01442709C0842F72
:1406A200805D8093D0012AE007EC11E0DDDE43954A30A8F3ED
:1406B60008C0862F805D8093CF0129E007EC11E0D1DEE0D1A6
:1406CA000895219720906D002220E1F304E610E06FD18EE00C
:1406DE0088832CE531E007EC10E09BDF002311F001E001C0B8
:1406F200002721960895D6D14427662709C080E690E0E42F28
:14070600FF27E80FF91F2224208243954C30A8F36FE4442715
:14071A0013C0262E33246F5F87E491E0E22DFF27E80FF91F5F
:14072E00208080E690E0E42FFF27E80FF91F20827FD143952F
:140742004B3058F3A1D10895002708C080E690E080308907C9
:1407560011F0002704C003950C30B0F301E0089599D16627B7
:14076A00442729E00BE910E07BDE01C0639587EC90E0E62F19
:14077E00FF27E80FF91F80818D30B1F76CE4462F87EC90E024
:14079200E62FFF27E80FF91F8081873409F035C088EC90E07B
:1407A600E42FFF27E80FF91F8081883409F02BC0EE2424C060
:1407BA0087EC90E0EE2DFF27E80FF91F208087E491E0EE2D61
:1407CE00FF27E80FF91F2082CE2CAE2C85EC90E0EC2DFF274C
:1407E200E80FF91F8081803351F486EC90E0EA2DFF27E80FE5
:1407F600F91F80818D3009F402C0E394DBCF79DF01E022DFFF
:14080A0002C001E01FDF42D10895219782990CC022242092F2
:14081E0074000AE010E0CAD0829907C081E08093730003C052
:1408320081E08093740020907400222069F0209073002220A6
:1408460049F022242092730081E028B2282628BA01E001C0ED
:14085A00002721960895002319F096988E9A01C08E98089509
:14086E002DC02DDF002309F077DF20907000222039F023E07D
:1408820009E210E0B5DD22242092700020907200222021F414
:1408960020907100222059F023E00DE210E0A6DD2224209245
:1408AA0075002092720020927100AFDF002341F02090750077
:1408BE00222021F481E08093750052DED2CF08952197002799
:1408D200C6DF04EF11E070D001E0C1DF04EF11E06BD0002782
:1408E600BCDF949802E310E065D0949A02E310E061D09498CD
:1408FA0002E310E05DD0949A22242092A5002092C60083DF43
:14090E000023E9F32224288222E008E910E0E2DD04EF11E060
:140922004BD081E0888322E008E910E0D9DD81E0888324E031
:1409360003E910E0D3DD81E0888324E00EE810E0CDDD81E0C0
:14094A0088832BE002E810E0C7DD81E0888329E008E710E0B1
:14095E00C1DD0FEF75DE6CD07ED02196089581E088BB87BBD2
:14097200222425BA82E084BB8CE082BB80E581BB089522247E
:140986002AB82BB886E880BD8BE089B920BC88ED8AB908950F
:14099A00F894E7DFF2DF222425BE2BBE29BE789491DF089514
:1409AE0008EE13E003D0F2DF5BDF089577D00AC044275527D9
:1409C20003C000004F5F5F4F423CE1E05E07C8F31801015039
:1409D6001040222089F7332079F767D0089560D0B901402F0B
:1409EA00E59B03C008E010E0E3DF1B01232C33242FBACB01A5
:1409FE0090708EBB4DBBE29AE19A08E010E0D6DF3DD0089566
:140A12004BD0A801E09B03C008E010E0CDDF1A01232C332489
:140A26002FBACA0190708EBBE09A0AE010E0C2DF4DB3042F97
:140A3A003AD0089533D066270CC080E690E0E62FFF27E80F9D
:140A4E00F91F4081262F3327042FC5DF63956C3090F314D03A
:140A6200089520D066270CC0062F1127D1DF402F80E690E038
:140A7600E62FFF27E80FF91F408363956C3090F301D00895DA
:140A8A00E2E012C0E4E010C0E8E00EC0EE270CC0FA92EA92B1
:140A9E00DA92CA92BA92AA927A936A935A934A930895E1E0C2
:140AB20049915991E0FD089569917991E1FD0895A990B990F1
:120AC600E2FD0895C990D990E3FD0895E990F9900895C4
:00000001FF
